{
  "contractName": "NFTMarketplace",
  "abi": [
    {
      "inputs": [],
      "stateMutability": "nonpayable",
      "type": "constructor"
    },
    {
      "anonymous": false,
      "inputs": [
        {
          "indexed": true,
          "internalType": "address",
          "name": "owner",
          "type": "address"
        },
        {
          "indexed": true,
          "internalType": "address",
          "name": "approved",
          "type": "address"
        },
        {
          "indexed": true,
          "internalType": "uint256",
          "name": "tokenId",
          "type": "uint256"
        }
      ],
      "name": "Approval",
      "type": "event"
    },
    {
      "anonymous": false,
      "inputs": [
        {
          "indexed": true,
          "internalType": "address",
          "name": "owner",
          "type": "address"
        },
        {
          "indexed": true,
          "internalType": "address",
          "name": "operator",
          "type": "address"
        },
        {
          "indexed": false,
          "internalType": "bool",
          "name": "approved",
          "type": "bool"
        }
      ],
      "name": "ApprovalForAll",
      "type": "event"
    },
    {
      "anonymous": false,
      "inputs": [
        {
          "indexed": true,
          "internalType": "uint256",
          "name": "tokenId",
          "type": "uint256"
        },
        {
          "indexed": false,
          "internalType": "address",
          "name": "seller",
          "type": "address"
        },
        {
          "indexed": false,
          "internalType": "address",
          "name": "owner",
          "type": "address"
        },
        {
          "indexed": false,
          "internalType": "uint256",
          "name": "price",
          "type": "uint256"
        },
        {
          "indexed": false,
          "internalType": "bool",
          "name": "sold",
          "type": "bool"
        }
      ],
      "name": "MarketItemCreated",
      "type": "event"
    },
    {
      "anonymous": false,
      "inputs": [
        {
          "indexed": true,
          "internalType": "uint256",
          "name": "tokenId",
          "type": "uint256"
        },
        {
          "indexed": false,
          "internalType": "address",
          "name": "verifier",
          "type": "address"
        }
      ],
      "name": "TokenVerified",
      "type": "event"
    },
    {
      "anonymous": false,
      "inputs": [
        {
          "indexed": true,
          "internalType": "address",
          "name": "from",
          "type": "address"
        },
        {
          "indexed": true,
          "internalType": "address",
          "name": "to",
          "type": "address"
        },
        {
          "indexed": true,
          "internalType": "uint256",
          "name": "tokenId",
          "type": "uint256"
        }
      ],
      "name": "Transfer",
      "type": "event"
    },
    {
      "inputs": [
        {
          "internalType": "address",
          "name": "to",
          "type": "address"
        },
        {
          "internalType": "uint256",
          "name": "tokenId",
          "type": "uint256"
        }
      ],
      "name": "approve",
      "outputs": [],
      "stateMutability": "nonpayable",
      "type": "function"
    },
    {
      "inputs": [
        {
          "internalType": "address",
          "name": "owner",
          "type": "address"
        }
      ],
      "name": "balanceOf",
      "outputs": [
        {
          "internalType": "uint256",
          "name": "",
          "type": "uint256"
        }
      ],
      "stateMutability": "view",
      "type": "function"
    },
    {
      "inputs": [
        {
          "internalType": "uint256",
          "name": "tokenId",
          "type": "uint256"
        }
      ],
      "name": "getApproved",
      "outputs": [
        {
          "internalType": "address",
          "name": "",
          "type": "address"
        }
      ],
      "stateMutability": "view",
      "type": "function"
    },
    {
      "inputs": [
        {
          "internalType": "uint256",
          "name": "",
          "type": "uint256"
        }
      ],
      "name": "idToMarketItem",
      "outputs": [
        {
          "internalType": "uint256",
          "name": "tokenId",
          "type": "uint256"
        },
        {
          "internalType": "address payable",
          "name": "seller",
          "type": "address"
        },
        {
          "internalType": "address payable",
          "name": "owner",
          "type": "address"
        },
        {
          "internalType": "address",
          "name": "verifier",
          "type": "address"
        },
        {
          "internalType": "uint256",
          "name": "price",
          "type": "uint256"
        },
        {
          "internalType": "uint256",
          "name": "valuation",
          "type": "uint256"
        },
        {
          "internalType": "uint256",
          "name": "valuationDate",
          "type": "uint256"
        },
        {
          "internalType": "bool",
          "name": "sold",
          "type": "bool"
        },
        {
          "internalType": "bool",
          "name": "verified",
          "type": "bool"
        }
      ],
      "stateMutability": "view",
      "type": "function"
    },
    {
      "inputs": [
        {
          "internalType": "address",
          "name": "owner",
          "type": "address"
        },
        {
          "internalType": "address",
          "name": "operator",
          "type": "address"
        }
      ],
      "name": "isApprovedForAll",
      "outputs": [
        {
          "internalType": "bool",
          "name": "",
          "type": "bool"
        }
      ],
      "stateMutability": "view",
      "type": "function"
    },
    {
      "inputs": [
        {
          "internalType": "address",
          "name": "",
          "type": "address"
        }
      ],
      "name": "isVerifier",
      "outputs": [
        {
          "internalType": "bool",
          "name": "",
          "type": "bool"
        }
      ],
      "stateMutability": "view",
      "type": "function"
    },
    {
      "inputs": [],
      "name": "name",
      "outputs": [
        {
          "internalType": "string",
          "name": "",
          "type": "string"
        }
      ],
      "stateMutability": "view",
      "type": "function"
    },
    {
      "inputs": [
        {
          "internalType": "uint256",
          "name": "tokenId",
          "type": "uint256"
        }
      ],
      "name": "ownerOf",
      "outputs": [
        {
          "internalType": "address",
          "name": "",
          "type": "address"
        }
      ],
      "stateMutability": "view",
      "type": "function"
    },
    {
      "inputs": [
        {
          "internalType": "address",
          "name": "from",
          "type": "address"
        },
        {
          "internalType": "address",
          "name": "to",
          "type": "address"
        },
        {
          "internalType": "uint256",
          "name": "tokenId",
          "type": "uint256"
        }
      ],
      "name": "safeTransferFrom",
      "outputs": [],
      "stateMutability": "nonpayable",
      "type": "function"
    },
    {
      "inputs": [
        {
          "internalType": "address",
          "name": "from",
          "type": "address"
        },
        {
          "internalType": "address",
          "name": "to",
          "type": "address"
        },
        {
          "internalType": "uint256",
          "name": "tokenId",
          "type": "uint256"
        },
        {
          "internalType": "bytes",
          "name": "_data",
          "type": "bytes"
        }
      ],
      "name": "safeTransferFrom",
      "outputs": [],
      "stateMutability": "nonpayable",
      "type": "function"
    },
    {
      "inputs": [
        {
          "internalType": "address",
          "name": "operator",
          "type": "address"
        },
        {
          "internalType": "bool",
          "name": "approved",
          "type": "bool"
        }
      ],
      "name": "setApprovalForAll",
      "outputs": [],
      "stateMutability": "nonpayable",
      "type": "function"
    },
    {
      "inputs": [
        {
          "internalType": "bytes4",
          "name": "interfaceId",
          "type": "bytes4"
        }
      ],
      "name": "supportsInterface",
      "outputs": [
        {
          "internalType": "bool",
          "name": "",
          "type": "bool"
        }
      ],
      "stateMutability": "view",
      "type": "function"
    },
    {
      "inputs": [],
      "name": "symbol",
      "outputs": [
        {
          "internalType": "string",
          "name": "",
          "type": "string"
        }
      ],
      "stateMutability": "view",
      "type": "function"
    },
    {
      "inputs": [
        {
          "internalType": "uint256",
          "name": "tokenId",
          "type": "uint256"
        }
      ],
      "name": "tokenURI",
      "outputs": [
        {
          "internalType": "string",
          "name": "",
          "type": "string"
        }
      ],
      "stateMutability": "view",
      "type": "function"
    },
    {
      "inputs": [
        {
          "internalType": "address",
          "name": "from",
          "type": "address"
        },
        {
          "internalType": "address",
          "name": "to",
          "type": "address"
        },
        {
          "internalType": "uint256",
          "name": "tokenId",
          "type": "uint256"
        }
      ],
      "name": "transferFrom",
      "outputs": [],
      "stateMutability": "nonpayable",
      "type": "function"
    },
    {
      "inputs": [
        {
          "internalType": "uint256",
          "name": "_listingPrice",
          "type": "uint256"
        }
      ],
      "name": "updateListingPrice",
      "outputs": [],
      "stateMutability": "payable",
      "type": "function"
    },
    {
      "inputs": [],
      "name": "getListingPrice",
      "outputs": [
        {
          "internalType": "uint256",
          "name": "",
          "type": "uint256"
        }
      ],
      "stateMutability": "view",
      "type": "function"
    },
    {
      "inputs": [
        {
          "internalType": "string",
          "name": "tokenURI",
          "type": "string"
        },
        {
          "internalType": "uint256",
          "name": "price",
          "type": "uint256"
        }
      ],
      "name": "createToken",
      "outputs": [
        {
          "internalType": "uint256",
          "name": "",
          "type": "uint256"
        }
      ],
      "stateMutability": "payable",
      "type": "function"
    },
    {
      "inputs": [
        {
          "internalType": "uint256",
          "name": "_tokenId",
          "type": "uint256"
        },
        {
          "internalType": "uint256",
          "name": "_valuation",
          "type": "uint256"
        }
      ],
      "name": "verifyToken",
      "outputs": [],
      "stateMutability": "nonpayable",
      "type": "function"
    },
    {
      "inputs": [
        {
          "internalType": "uint256",
          "name": "tokenId",
          "type": "uint256"
        },
        {
          "internalType": "uint256",
          "name": "price",
          "type": "uint256"
        }
      ],
      "name": "resellToken",
      "outputs": [],
      "stateMutability": "payable",
      "type": "function"
    },
    {
      "inputs": [
        {
          "internalType": "uint256",
          "name": "tokenId",
          "type": "uint256"
        }
      ],
      "name": "createMarketSale",
      "outputs": [],
      "stateMutability": "payable",
      "type": "function"
    },
    {
      "inputs": [],
      "name": "fetchMarketItems",
      "outputs": [
        {
          "components": [
            {
              "internalType": "uint256",
              "name": "tokenId",
              "type": "uint256"
            },
            {
              "internalType": "address payable",
              "name": "seller",
              "type": "address"
            },
            {
              "internalType": "address payable",
              "name": "owner",
              "type": "address"
            },
            {
              "internalType": "address",
              "name": "verifier",
              "type": "address"
            },
            {
              "internalType": "uint256",
              "name": "price",
              "type": "uint256"
            },
            {
              "internalType": "uint256",
              "name": "valuation",
              "type": "uint256"
            },
            {
              "internalType": "uint256",
              "name": "valuationDate",
              "type": "uint256"
            },
            {
              "internalType": "bool",
              "name": "sold",
              "type": "bool"
            },
            {
              "internalType": "bool",
              "name": "verified",
              "type": "bool"
            }
          ],
          "internalType": "struct NFTMarketplace.MarketItem[]",
          "name": "",
          "type": "tuple[]"
        }
      ],
      "stateMutability": "view",
      "type": "function"
    },
    {
      "inputs": [],
      "name": "fetchMyNFTs",
      "outputs": [
        {
          "components": [
            {
              "internalType": "uint256",
              "name": "tokenId",
              "type": "uint256"
            },
            {
              "internalType": "address payable",
              "name": "seller",
              "type": "address"
            },
            {
              "internalType": "address payable",
              "name": "owner",
              "type": "address"
            },
            {
              "internalType": "address",
              "name": "verifier",
              "type": "address"
            },
            {
              "internalType": "uint256",
              "name": "price",
              "type": "uint256"
            },
            {
              "internalType": "uint256",
              "name": "valuation",
              "type": "uint256"
            },
            {
              "internalType": "uint256",
              "name": "valuationDate",
              "type": "uint256"
            },
            {
              "internalType": "bool",
              "name": "sold",
              "type": "bool"
            },
            {
              "internalType": "bool",
              "name": "verified",
              "type": "bool"
            }
          ],
          "internalType": "struct NFTMarketplace.MarketItem[]",
          "name": "",
          "type": "tuple[]"
        }
      ],
      "stateMutability": "view",
      "type": "function"
    },
    {
      "inputs": [],
      "name": "fetchItemsListed",
      "outputs": [
        {
          "components": [
            {
              "internalType": "uint256",
              "name": "tokenId",
              "type": "uint256"
            },
            {
              "internalType": "address payable",
              "name": "seller",
              "type": "address"
            },
            {
              "internalType": "address payable",
              "name": "owner",
              "type": "address"
            },
            {
              "internalType": "address",
              "name": "verifier",
              "type": "address"
            },
            {
              "internalType": "uint256",
              "name": "price",
              "type": "uint256"
            },
            {
              "internalType": "uint256",
              "name": "valuation",
              "type": "uint256"
            },
            {
              "internalType": "uint256",
              "name": "valuationDate",
              "type": "uint256"
            },
            {
              "internalType": "bool",
              "name": "sold",
              "type": "bool"
            },
            {
              "internalType": "bool",
              "name": "verified",
              "type": "bool"
            }
          ],
          "internalType": "struct NFTMarketplace.MarketItem[]",
          "name": "",
          "type": "tuple[]"
        }
      ],
      "stateMutability": "view",
      "type": "function"
    }
  ],
  "bytecode": "0x6080604052670de0b6b3a76400006009553480156200001d57600080fd5b506040518060400160405280601181526020017f5265616c2045737461746520546f6b656e0000000000000000000000000000008152506040518060400160405280600381526020017f52535400000000000000000000000000000000000000000000000000000000008152508160009080519060200190620000a29291906200015d565b508060019080519060200190620000bb9291906200015d565b50505033600a60006101000a81548173ffffffffffffffffffffffffffffffffffffffff021916908373ffffffffffffffffffffffffffffffffffffffff1602179055506001600c60003373ffffffffffffffffffffffffffffffffffffffff1673ffffffffffffffffffffffffffffffffffffffff16815260200190815260200160002060006101000a81548160ff02191690831515021790555062000272565b8280546200016b906200023c565b90600052602060002090601f0160209004810192826200018f5760008555620001db565b82601f10620001aa57805160ff1916838001178555620001db565b82800160010185558215620001db579182015b82811115620001da578251825591602001919060010190620001bd565b5b509050620001ea9190620001ee565b5090565b5b8082111562000209576000816000905550600101620001ef565b5090565b7f4e487b7100000000000000000000000000000000000000000000000000000000600052602260045260246000fd5b600060028204905060018216806200025557607f821691505b602082108114156200026c576200026b6200020d565b5b50919050565b614ba080620002826000396000f3fe60806040526004361061014b5760003560e01c80636e0d3a75116100b6578063b88d4fde1161006f578063b88d4fde1461049c578063be9af536146104c5578063c87b56dd146104e1578063e219fc751461051e578063e61a70c01461053a578063e985e9c51461057f5761014b565b80636e0d3a751461039657806370a08231146103bf57806372b3b620146103fc57806395d89b411461042c578063a22cb46514610457578063ae677aa3146104805761014b565b8063202e374011610108578063202e37401461027457806323b872dd1461029f57806333105218146102c857806342842e0e1461030557806345f8fa801461032e5780636352211e146103595761014b565b806301ffc9a71461015057806306fdde031461018d578063081812fc146101b8578063095ea7b3146101f55780630f08efe01461021e57806312e8558514610249575b600080fd5b34801561015c57600080fd5b50610177600480360381019061017291906131c6565b6105bc565b604051610184919061320e565b60405180910390f35b34801561019957600080fd5b506101a261069e565b6040516101af91906132c2565b60405180910390f35b3480156101c457600080fd5b506101df60048036038101906101da919061331a565b610730565b6040516101ec9190613388565b60405180910390f35b34801561020157600080fd5b5061021c600480360381019061021791906133cf565b6107b5565b005b34801561022a57600080fd5b506102336108cd565b60405161024091906135c4565b60405180910390f35b34801561025557600080fd5b5061025e610bfb565b60405161026b91906135f5565b60405180910390f35b34801561028057600080fd5b50610289610c05565b60405161029691906135c4565b60405180910390f35b3480156102ab57600080fd5b506102c660048036038101906102c19190613610565b610f79565b005b3480156102d457600080fd5b506102ef60048036038101906102ea9190613663565b610fd9565b6040516102fc919061320e565b60405180910390f35b34801561031157600080fd5b5061032c60048036038101906103279190613610565b610ff9565b005b34801561033a57600080fd5b50610343611019565b60405161035091906135c4565b60405180910390f35b34801561036557600080fd5b50610380600480360381019061037b919061331a565b61138d565b60405161038d9190613388565b60405180910390f35b3480156103a257600080fd5b506103bd60048036038101906103b89190613690565b61143f565b005b3480156103cb57600080fd5b506103e660048036038101906103e19190613663565b6115c8565b6040516103f391906135f5565b60405180910390f35b61041660048036038101906104119190613805565b611680565b60405161042391906135f5565b60405180910390f35b34801561043857600080fd5b506104416116c2565b60405161044e91906132c2565b60405180910390f35b34801561046357600080fd5b5061047e6004803603810190610479919061388d565b611754565b005b61049a6004803603810190610495919061331a565b61176a565b005b3480156104a857600080fd5b506104c360048036038101906104be919061396e565b611804565b005b6104df60048036038101906104da919061331a565b611866565b005b3480156104ed57600080fd5b506105086004803603810190610503919061331a565b611b0e565b60405161051591906132c2565b60405180910390f35b61053860048036038101906105339190613690565b611c60565b005b34801561054657600080fd5b50610561600480360381019061055c919061331a565b611ebf565b60405161057699989796959493929190613a00565b60405180910390f35b34801561058b57600080fd5b506105a660048036038101906105a19190613a8d565b611f87565b6040516105b3919061320e565b60405180910390f35b60007f80ac58cd000000000000000000000000000000000000000000000000000000007bffffffffffffffffffffffffffffffffffffffffffffffffffffffff1916827bffffffffffffffffffffffffffffffffffffffffffffffffffffffff1916148061068757507f5b5e139f000000000000000000000000000000000000000000000000000000007bffffffffffffffffffffffffffffffffffffffffffffffffffffffff1916827bffffffffffffffffffffffffffffffffffffffffffffffffffffffff1916145b8061069757506106968261201b565b5b9050919050565b6060600080546106ad90613afc565b80601f01602080910402602001604051908101604052809291908181526020018280546106d990613afc565b80156107265780601f106106fb57610100808354040283529160200191610726565b820191906000526020600020905b81548152906001019060200180831161070957829003601f168201915b5050505050905090565b600061073b82612085565b61077a576040517f08c379a000000000000000000000000000000000000000000000000000000000815260040161077190613ba0565b60405180910390fd5b6004600083815260200190815260200160002060009054906101000a900473ffffffffffffffffffffffffffffffffffffffff169050919050565b60006107c08261138d565b90508073ffffffffffffffffffffffffffffffffffffffff168373ffffffffffffffffffffffffffffffffffffffff161415610831576040517f08c379a000000000000000000000000000000000000000000000000000000000815260040161082890613c32565b60405180910390fd5b8073ffffffffffffffffffffffffffffffffffffffff166108506120f1565b73ffffffffffffffffffffffffffffffffffffffff16148061087f575061087e816108796120f1565b611f87565b5b6108be576040517f08c379a00000000000000000000000000000000000000000000000000000000081526004016108b590613cc4565b60405180910390fd5b6108c883836120f9565b505050565b606060006108db60076121b2565b905060006108e960086121b2565b6108f360076121b2565b6108fd9190613d13565b90506000808267ffffffffffffffff81111561091c5761091b6136da565b5b60405190808252806020026020018201604052801561095557816020015b610942613025565b81526020019060019003908161093a5790505b50905060005b84811015610bf0573073ffffffffffffffffffffffffffffffffffffffff16600b600060018461098b9190613d47565b815260200190815260200160002060020160009054906101000a900473ffffffffffffffffffffffffffffffffffffffff1673ffffffffffffffffffffffffffffffffffffffff16148015610a13575060011515600b60006001846109f09190613d47565b815260200190815260200160002060070160019054906101000a900460ff161515145b15610bdd576000600182610a279190613d47565b90506000600b600083815260200190815260200160002090508060405180610120016040529081600082015481526020016001820160009054906101000a900473ffffffffffffffffffffffffffffffffffffffff1673ffffffffffffffffffffffffffffffffffffffff1673ffffffffffffffffffffffffffffffffffffffff1681526020016002820160009054906101000a900473ffffffffffffffffffffffffffffffffffffffff1673ffffffffffffffffffffffffffffffffffffffff1673ffffffffffffffffffffffffffffffffffffffff1681526020016003820160009054906101000a900473ffffffffffffffffffffffffffffffffffffffff1673ffffffffffffffffffffffffffffffffffffffff1673ffffffffffffffffffffffffffffffffffffffff1681526020016004820154815260200160058201548152602001600682015481526020016007820160009054906101000a900460ff161515151581526020016007820160019054906101000a900460ff161515151581525050848681518110610bc057610bbf613d9d565b5b6020026020010181905250600185610bd89190613d47565b945050505b8080610be890613dcc565b91505061095b565b508094505050505090565b6000600954905090565b60606000610c1360076121b2565b905060008060005b83811015610cbc573373ffffffffffffffffffffffffffffffffffffffff16600b6000600184610c4b9190613d47565b815260200190815260200160002060020160009054906101000a900473ffffffffffffffffffffffffffffffffffffffff1673ffffffffffffffffffffffffffffffffffffffff161415610ca957600183610ca69190613d47565b92505b8080610cb490613dcc565b915050610c1b565b5060008267ffffffffffffffff811115610cd957610cd86136da565b5b604051908082528060200260200182016040528015610d1257816020015b610cff613025565b815260200190600190039081610cf75790505b50905060005b84811015610f6e573373ffffffffffffffffffffffffffffffffffffffff16600b6000600184610d489190613d47565b815260200190815260200160002060020160009054906101000a900473ffffffffffffffffffffffffffffffffffffffff1673ffffffffffffffffffffffffffffffffffffffff161415610f5b576000600182610da59190613d47565b90506000600b600083815260200190815260200160002090508060405180610120016040529081600082015481526020016001820160009054906101000a900473ffffffffffffffffffffffffffffffffffffffff1673ffffffffffffffffffffffffffffffffffffffff1673ffffffffffffffffffffffffffffffffffffffff1681526020016002820160009054906101000a900473ffffffffffffffffffffffffffffffffffffffff1673ffffffffffffffffffffffffffffffffffffffff1673ffffffffffffffffffffffffffffffffffffffff1681526020016003820160009054906101000a900473ffffffffffffffffffffffffffffffffffffffff1673ffffffffffffffffffffffffffffffffffffffff1673ffffffffffffffffffffffffffffffffffffffff1681526020016004820154815260200160058201548152602001600682015481526020016007820160009054906101000a900460ff161515151581526020016007820160019054906101000a900460ff161515151581525050848681518110610f3e57610f3d613d9d565b5b6020026020010181905250600185610f569190613d47565b945050505b8080610f6690613dcc565b915050610d18565b508094505050505090565b610f8a610f846120f1565b826121c0565b610fc9576040517f08c379a0000000000000000000000000000000000000000000000000000000008152600401610fc090613e87565b60405180910390fd5b610fd483838361229e565b505050565b600c6020528060005260406000206000915054906101000a900460ff1681565b61101483838360405180602001604052806000815250611804565b505050565b6060600061102760076121b2565b905060008060005b838110156110d0573373ffffffffffffffffffffffffffffffffffffffff16600b600060018461105f9190613d47565b815260200190815260200160002060010160009054906101000a900473ffffffffffffffffffffffffffffffffffffffff1673ffffffffffffffffffffffffffffffffffffffff1614156110bd576001836110ba9190613d47565b92505b80806110c890613dcc565b91505061102f565b5060008267ffffffffffffffff8111156110ed576110ec6136da565b5b60405190808252806020026020018201604052801561112657816020015b611113613025565b81526020019060019003908161110b5790505b50905060005b84811015611382573373ffffffffffffffffffffffffffffffffffffffff16600b600060018461115c9190613d47565b815260200190815260200160002060010160009054906101000a900473ffffffffffffffffffffffffffffffffffffffff1673ffffffffffffffffffffffffffffffffffffffff16141561136f5760006001826111b99190613d47565b90506000600b600083815260200190815260200160002090508060405180610120016040529081600082015481526020016001820160009054906101000a900473ffffffffffffffffffffffffffffffffffffffff1673ffffffffffffffffffffffffffffffffffffffff1673ffffffffffffffffffffffffffffffffffffffff1681526020016002820160009054906101000a900473ffffffffffffffffffffffffffffffffffffffff1673ffffffffffffffffffffffffffffffffffffffff1673ffffffffffffffffffffffffffffffffffffffff1681526020016003820160009054906101000a900473ffffffffffffffffffffffffffffffffffffffff1673ffffffffffffffffffffffffffffffffffffffff1673ffffffffffffffffffffffffffffffffffffffff1681526020016004820154815260200160058201548152602001600682015481526020016007820160009054906101000a900460ff161515151581526020016007820160019054906101000a900460ff16151515158152505084868151811061135257611351613d9d565b5b602002602001018190525060018561136a9190613d47565b945050505b808061137a90613dcc565b91505061112c565b508094505050505090565b6000806002600084815260200190815260200160002060009054906101000a900473ffffffffffffffffffffffffffffffffffffffff169050600073ffffffffffffffffffffffffffffffffffffffff168173ffffffffffffffffffffffffffffffffffffffff161415611436576040517f08c379a000000000000000000000000000000000000000000000000000000000815260040161142d90613f19565b60405180910390fd5b80915050919050565b60011515600c60003373ffffffffffffffffffffffffffffffffffffffff1673ffffffffffffffffffffffffffffffffffffffff16815260200190815260200160002060009054906101000a900460ff161515146114d2576040517f08c379a00000000000000000000000000000000000000000000000000000000081526004016114c990613fab565b60405180910390fd5b80600b60008481526020019081526020016000206005018190555042600b6000848152602001908152602001600020600601819055506001600b600084815260200190815260200160002060070160016101000a81548160ff02191690831515021790555033600b600084815260200190815260200160002060030160006101000a81548173ffffffffffffffffffffffffffffffffffffffff021916908373ffffffffffffffffffffffffffffffffffffffff160217905550817f4a3d1907355e486fa9dec825eb6c9381047283bfe4872c21db8adbffab9168a6336040516115bc9190613388565b60405180910390a25050565b60008073ffffffffffffffffffffffffffffffffffffffff168273ffffffffffffffffffffffffffffffffffffffff161415611639576040517f08c379a00000000000000000000000000000000000000000000000000000000081526004016116309061403d565b60405180910390fd5b600360008373ffffffffffffffffffffffffffffffffffffffff1673ffffffffffffffffffffffffffffffffffffffff168152602001908152602001600020549050919050565b600061168c6007612505565b600061169860076121b2565b90506116a4338261251b565b6116ae81856126f5565b6116b88184612769565b8091505092915050565b6060600180546116d190613afc565b80601f01602080910402602001604051908101604052809291908181526020018280546116fd90613afc565b801561174a5780601f1061171f5761010080835404028352916020019161174a565b820191906000526020600020905b81548152906001019060200180831161172d57829003601f168201915b5050505050905090565b61176661175f6120f1565b8383612a1d565b5050565b3373ffffffffffffffffffffffffffffffffffffffff16600a60009054906101000a900473ffffffffffffffffffffffffffffffffffffffff1673ffffffffffffffffffffffffffffffffffffffff16146117fa576040517f08c379a00000000000000000000000000000000000000000000000000000000081526004016117f1906140cf565b60405180910390fd5b8060098190555050565b61181561180f6120f1565b836121c0565b611854576040517f08c379a000000000000000000000000000000000000000000000000000000000815260040161184b90613e87565b60405180910390fd5b61186084848484612b8a565b50505050565b6000600b60008381526020019081526020016000206004015490506000600b600084815260200190815260200160002060010160009054906101000a900473ffffffffffffffffffffffffffffffffffffffff1690508134146118fe576040517f08c379a00000000000000000000000000000000000000000000000000000000081526004016118f590614161565b60405180910390fd5b60011515600b600085815260200190815260200160002060070160019054906101000a900460ff16151514611968576040517f08c379a000000000000000000000000000000000000000000000000000000000815260040161195f906141f3565b60405180910390fd5b33600b600085815260200190815260200160002060020160006101000a81548173ffffffffffffffffffffffffffffffffffffffff021916908373ffffffffffffffffffffffffffffffffffffffff1602179055506001600b600085815260200190815260200160002060070160006101000a81548160ff0219169083151502179055506000600b600085815260200190815260200160002060010160006101000a81548173ffffffffffffffffffffffffffffffffffffffff021916908373ffffffffffffffffffffffffffffffffffffffff160217905550611a4c6008612505565b611a5730338561229e565b600a60009054906101000a900473ffffffffffffffffffffffffffffffffffffffff1673ffffffffffffffffffffffffffffffffffffffff166108fc6009549081150290604051600060405180830381858888f19350505050158015611ac1573d6000803e3d6000fd5b508073ffffffffffffffffffffffffffffffffffffffff166108fc349081150290604051600060405180830381858888f19350505050158015611b08573d6000803e3d6000fd5b50505050565b6060611b1982612085565b611b58576040517f08c379a0000000000000000000000000000000000000000000000000000000008152600401611b4f90614285565b60405180910390fd5b6000600660008481526020019081526020016000208054611b7890613afc565b80601f0160208091040260200160405190810160405280929190818152602001828054611ba490613afc565b8015611bf15780601f10611bc657610100808354040283529160200191611bf1565b820191906000526020600020905b815481529060010190602001808311611bd457829003601f168201915b505050505090506000611c02612be6565b9050600081511415611c18578192505050611c5b565b600082511115611c4d578082604051602001611c359291906142e1565b60405160208183030381529060405292505050611c5b565b611c5684612bfd565b925050505b919050565b3373ffffffffffffffffffffffffffffffffffffffff16600b600084815260200190815260200160002060020160009054906101000a900473ffffffffffffffffffffffffffffffffffffffff1673ffffffffffffffffffffffffffffffffffffffff1614611d04576040517f08c379a0000000000000000000000000000000000000000000000000000000008152600401611cfb90614377565b60405180910390fd5b60011515600b600084815260200190815260200160002060070160019054906101000a900460ff16151514611d6e576040517f08c379a0000000000000000000000000000000000000000000000000000000008152600401611d65906141f3565b60405180910390fd5b6009543414611db2576040517f08c379a0000000000000000000000000000000000000000000000000000000008152600401611da990614409565b60405180910390fd5b6000600b600084815260200190815260200160002060070160006101000a81548160ff02191690831515021790555080600b60008481526020019081526020016000206004018190555033600b600084815260200190815260200160002060010160006101000a81548173ffffffffffffffffffffffffffffffffffffffff021916908373ffffffffffffffffffffffffffffffffffffffff16021790555030600b600084815260200190815260200160002060020160006101000a81548173ffffffffffffffffffffffffffffffffffffffff021916908373ffffffffffffffffffffffffffffffffffffffff160217905550611eb06008612ca4565b611ebb33308461229e565b5050565b600b6020528060005260406000206000915090508060000154908060010160009054906101000a900473ffffffffffffffffffffffffffffffffffffffff16908060020160009054906101000a900473ffffffffffffffffffffffffffffffffffffffff16908060030160009054906101000a900473ffffffffffffffffffffffffffffffffffffffff16908060040154908060050154908060060154908060070160009054906101000a900460ff16908060070160019054906101000a900460ff16905089565b6000600560008473ffffffffffffffffffffffffffffffffffffffff1673ffffffffffffffffffffffffffffffffffffffff16815260200190815260200160002060008373ffffffffffffffffffffffffffffffffffffffff1673ffffffffffffffffffffffffffffffffffffffff16815260200190815260200160002060009054906101000a900460ff16905092915050565b60007f01ffc9a7000000000000000000000000000000000000000000000000000000007bffffffffffffffffffffffffffffffffffffffffffffffffffffffff1916827bffffffffffffffffffffffffffffffffffffffffffffffffffffffff1916149050919050565b60008073ffffffffffffffffffffffffffffffffffffffff166002600084815260200190815260200160002060009054906101000a900473ffffffffffffffffffffffffffffffffffffffff1673ffffffffffffffffffffffffffffffffffffffff1614159050919050565b600033905090565b816004600083815260200190815260200160002060006101000a81548173ffffffffffffffffffffffffffffffffffffffff021916908373ffffffffffffffffffffffffffffffffffffffff160217905550808273ffffffffffffffffffffffffffffffffffffffff1661216c8361138d565b73ffffffffffffffffffffffffffffffffffffffff167f8c5be1e5ebec7d5bd14f71427d1e84f3dd0314c0f7b2291e5b200ac8c7c3b92560405160405180910390a45050565b600081600001549050919050565b60006121cb82612085565b61220a576040517f08c379a00000000000000000000000000000000000000000000000000000000081526004016122019061449b565b60405180910390fd5b60006122158361138d565b90508073ffffffffffffffffffffffffffffffffffffffff168473ffffffffffffffffffffffffffffffffffffffff16148061228457508373ffffffffffffffffffffffffffffffffffffffff1661226c84610730565b73ffffffffffffffffffffffffffffffffffffffff16145b8061229557506122948185611f87565b5b91505092915050565b8273ffffffffffffffffffffffffffffffffffffffff166122be8261138d565b73ffffffffffffffffffffffffffffffffffffffff1614612314576040517f08c379a000000000000000000000000000000000000000000000000000000000815260040161230b9061452d565b60405180910390fd5b600073ffffffffffffffffffffffffffffffffffffffff168273ffffffffffffffffffffffffffffffffffffffff161415612384576040517f08c379a000000000000000000000000000000000000000000000000000000000815260040161237b906145bf565b60405180910390fd5b61238f838383612d00565b61239a6000826120f9565b6001600360008573ffffffffffffffffffffffffffffffffffffffff1673ffffffffffffffffffffffffffffffffffffffff16815260200190815260200160002060008282546123ea9190613d13565b925050819055506001600360008473ffffffffffffffffffffffffffffffffffffffff1673ffffffffffffffffffffffffffffffffffffffff16815260200190815260200160002060008282546124419190613d47565b92505081905550816002600083815260200190815260200160002060006101000a81548173ffffffffffffffffffffffffffffffffffffffff021916908373ffffffffffffffffffffffffffffffffffffffff160217905550808273ffffffffffffffffffffffffffffffffffffffff168473ffffffffffffffffffffffffffffffffffffffff167fddf252ad1be2c89b69c2b068fc378daa952ba7f163c4a11628f55a4df523b3ef60405160405180910390a4612500838383612d05565b505050565b6001816000016000828254019250508190555050565b600073ffffffffffffffffffffffffffffffffffffffff168273ffffffffffffffffffffffffffffffffffffffff16141561258b576040517f08c379a00000000000000000000000000000000000000000000000000000000081526004016125829061462b565b60405180910390fd5b61259481612085565b156125d4576040517f08c379a00000000000000000000000000000000000000000000000000000000081526004016125cb90614697565b60405180910390fd5b6125e060008383612d00565b6001600360008473ffffffffffffffffffffffffffffffffffffffff1673ffffffffffffffffffffffffffffffffffffffff16815260200190815260200160002060008282546126309190613d47565b92505081905550816002600083815260200190815260200160002060006101000a81548173ffffffffffffffffffffffffffffffffffffffff021916908373ffffffffffffffffffffffffffffffffffffffff160217905550808273ffffffffffffffffffffffffffffffffffffffff16600073ffffffffffffffffffffffffffffffffffffffff167fddf252ad1be2c89b69c2b068fc378daa952ba7f163c4a11628f55a4df523b3ef60405160405180910390a46126f160008383612d05565b5050565b6126fe82612085565b61273d576040517f08c379a000000000000000000000000000000000000000000000000000000000815260040161273490614729565b60405180910390fd5b806006600084815260200190815260200160002090805190602001906127649291906130b7565b505050565b600081116127ac576040517f08c379a00000000000000000000000000000000000000000000000000000000081526004016127a390614795565b60405180910390fd5b60095434146127f0576040517f08c379a00000000000000000000000000000000000000000000000000000000081526004016127e790614409565b60405180910390fd5b6040518061012001604052808381526020013373ffffffffffffffffffffffffffffffffffffffff1681526020013073ffffffffffffffffffffffffffffffffffffffff168152602001600073ffffffffffffffffffffffffffffffffffffffff168152602001828152602001600081526020016000815260200160001515815260200160001515815250600b60008481526020019081526020016000206000820151816000015560208201518160010160006101000a81548173ffffffffffffffffffffffffffffffffffffffff021916908373ffffffffffffffffffffffffffffffffffffffff16021790555060408201518160020160006101000a81548173ffffffffffffffffffffffffffffffffffffffff021916908373ffffffffffffffffffffffffffffffffffffffff16021790555060608201518160030160006101000a81548173ffffffffffffffffffffffffffffffffffffffff021916908373ffffffffffffffffffffffffffffffffffffffff1602179055506080820151816004015560a0820151816005015560c0820151816006015560e08201518160070160006101000a81548160ff0219169083151502179055506101008201518160070160016101000a81548160ff0219169083151502179055509050506129da33308461229e565b817fb640004f1d14576d0c209e240cad0410e0d8c0c33a09375861fbadae2588a98d3330846000604051612a1194939291906147b5565b60405180910390a25050565b8173ffffffffffffffffffffffffffffffffffffffff168373ffffffffffffffffffffffffffffffffffffffff161415612a8c576040517f08c379a0000000000000000000000000000000000000000000000000000000008152600401612a8390614846565b60405180910390fd5b80600560008573ffffffffffffffffffffffffffffffffffffffff1673ffffffffffffffffffffffffffffffffffffffff16815260200190815260200160002060008473ffffffffffffffffffffffffffffffffffffffff1673ffffffffffffffffffffffffffffffffffffffff16815260200190815260200160002060006101000a81548160ff0219169083151502179055508173ffffffffffffffffffffffffffffffffffffffff168373ffffffffffffffffffffffffffffffffffffffff167f17307eab39ab6107e8899845ad3d59bd9653f200f220920489ca2b5937696c3183604051612b7d919061320e565b60405180910390a3505050565b612b9584848461229e565b612ba184848484612d0a565b612be0576040517f08c379a0000000000000000000000000000000000000000000000000000000008152600401612bd7906148d8565b60405180910390fd5b50505050565b606060405180602001604052806000815250905090565b6060612c0882612085565b612c47576040517f08c379a0000000000000000000000000000000000000000000000000000000008152600401612c3e9061496a565b60405180910390fd5b6000612c51612be6565b90506000815111612c715760405180602001604052806000815250612c9c565b80612c7b84612ea1565b604051602001612c8c9291906142e1565b6040516020818303038152906040525b915050919050565b60008160000154905060008111612cf0576040517f08c379a0000000000000000000000000000000000000000000000000000000008152600401612ce7906149d6565b60405180910390fd5b6001810382600001819055505050565b505050565b505050565b6000612d2b8473ffffffffffffffffffffffffffffffffffffffff16613002565b15612e94578373ffffffffffffffffffffffffffffffffffffffff1663150b7a02612d546120f1565b8786866040518563ffffffff1660e01b8152600401612d769493929190614a4b565b602060405180830381600087803b158015612d9057600080fd5b505af1925050508015612dc157506040513d601f19601f82011682018060405250810190612dbe9190614aac565b60015b612e44573d8060008114612df1576040519150601f19603f3d011682016040523d82523d6000602084013e612df6565b606091505b50600081511415612e3c576040517f08c379a0000000000000000000000000000000000000000000000000000000008152600401612e33906148d8565b60405180910390fd5b805181602001fd5b63150b7a0260e01b7bffffffffffffffffffffffffffffffffffffffffffffffffffffffff1916817bffffffffffffffffffffffffffffffffffffffffffffffffffffffff191614915050612e99565b600190505b949350505050565b60606000821415612ee9576040518060400160405280600181526020017f30000000000000000000000000000000000000000000000000000000000000008152509050612ffd565b600082905060005b60008214612f1b578080612f0490613dcc565b915050600a82612f149190614b08565b9150612ef1565b60008167ffffffffffffffff811115612f3757612f366136da565b5b6040519080825280601f01601f191660200182016040528015612f695781602001600182028036833780820191505090505b5090505b60008514612ff657600182612f829190613d13565b9150600a85612f919190614b39565b6030612f9d9190613d47565b60f81b818381518110612fb357612fb2613d9d565b5b60200101907effffffffffffffffffffffffffffffffffffffffffffffffffffffffffffff1916908160001a905350600a85612fef9190614b08565b9450612f6d565b8093505050505b919050565b6000808273ffffffffffffffffffffffffffffffffffffffff163b119050919050565b60405180610120016040528060008152602001600073ffffffffffffffffffffffffffffffffffffffff168152602001600073ffffffffffffffffffffffffffffffffffffffff168152602001600073ffffffffffffffffffffffffffffffffffffffff1681526020016000815260200160008152602001600081526020016000151581526020016000151581525090565b8280546130c390613afc565b90600052602060002090601f0160209004810192826130e5576000855561312c565b82601f106130fe57805160ff191683800117855561312c565b8280016001018555821561312c579182015b8281111561312b578251825591602001919060010190613110565b5b509050613139919061313d565b5090565b5b8082111561315657600081600090555060010161313e565b5090565b6000604051905090565b600080fd5b600080fd5b60007fffffffff0000000000000000000000000000000000000000000000000000000082169050919050565b6131a38161316e565b81146131ae57600080fd5b50565b6000813590506131c08161319a565b92915050565b6000602082840312156131dc576131db613164565b5b60006131ea848285016131b1565b91505092915050565b60008115159050919050565b613208816131f3565b82525050565b600060208201905061322360008301846131ff565b92915050565b600081519050919050565b600082825260208201905092915050565b60005b83811015613263578082015181840152602081019050613248565b83811115613272576000848401525b50505050565b6000601f19601f8301169050919050565b600061329482613229565b61329e8185613234565b93506132ae818560208601613245565b6132b781613278565b840191505092915050565b600060208201905081810360008301526132dc8184613289565b905092915050565b6000819050919050565b6132f7816132e4565b811461330257600080fd5b50565b600081359050613314816132ee565b92915050565b6000602082840312156133305761332f613164565b5b600061333e84828501613305565b91505092915050565b600073ffffffffffffffffffffffffffffffffffffffff82169050919050565b600061337282613347565b9050919050565b61338281613367565b82525050565b600060208201905061339d6000830184613379565b92915050565b6133ac81613367565b81146133b757600080fd5b50565b6000813590506133c9816133a3565b92915050565b600080604083850312156133e6576133e5613164565b5b60006133f4858286016133ba565b925050602061340585828601613305565b9150509250929050565b600081519050919050565b600082825260208201905092915050565b6000819050602082019050919050565b613444816132e4565b82525050565b600061345582613347565b9050919050565b6134658161344a565b82525050565b61347481613367565b82525050565b613483816131f3565b82525050565b610120820160008201516134a0600085018261343b565b5060208201516134b3602085018261345c565b5060408201516134c6604085018261345c565b5060608201516134d9606085018261346b565b5060808201516134ec608085018261343b565b5060a08201516134ff60a085018261343b565b5060c082015161351260c085018261343b565b5060e082015161352560e085018261347a565b5061010082015161353a61010085018261347a565b50505050565b600061354c8383613489565b6101208301905092915050565b6000602082019050919050565b60006135718261340f565b61357b818561341a565b93506135868361342b565b8060005b838110156135b757815161359e8882613540565b97506135a983613559565b92505060018101905061358a565b5085935050505092915050565b600060208201905081810360008301526135de8184613566565b905092915050565b6135ef816132e4565b82525050565b600060208201905061360a60008301846135e6565b92915050565b60008060006060848603121561362957613628613164565b5b6000613637868287016133ba565b9350506020613648868287016133ba565b925050604061365986828701613305565b9150509250925092565b60006020828403121561367957613678613164565b5b6000613687848285016133ba565b91505092915050565b600080604083850312156136a7576136a6613164565b5b60006136b585828601613305565b92505060206136c685828601613305565b9150509250929050565b600080fd5b600080fd5b7f4e487b7100000000000000000000000000000000000000000000000000000000600052604160045260246000fd5b61371282613278565b810181811067ffffffffffffffff82111715613731576137306136da565b5b80604052505050565b600061374461315a565b90506137508282613709565b919050565b600067ffffffffffffffff8211156137705761376f6136da565b5b61377982613278565b9050602081019050919050565b82818337600083830152505050565b60006137a86137a384613755565b61373a565b9050828152602081018484840111156137c4576137c36136d5565b5b6137cf848285613786565b509392505050565b600082601f8301126137ec576137eb6136d0565b5b81356137fc848260208601613795565b91505092915050565b6000806040838503121561381c5761381b613164565b5b600083013567ffffffffffffffff81111561383a57613839613169565b5b613846858286016137d7565b925050602061385785828601613305565b9150509250929050565b61386a816131f3565b811461387557600080fd5b50565b60008135905061388781613861565b92915050565b600080604083850312156138a4576138a3613164565b5b60006138b2858286016133ba565b92505060206138c385828601613878565b9150509250929050565b600067ffffffffffffffff8211156138e8576138e76136da565b5b6138f182613278565b9050602081019050919050565b600061391161390c846138cd565b61373a565b90508281526020810184848401111561392d5761392c6136d5565b5b613938848285613786565b509392505050565b600082601f830112613955576139546136d0565b5b81356139658482602086016138fe565b91505092915050565b6000806000806080858703121561398857613987613164565b5b6000613996878288016133ba565b94505060206139a7878288016133ba565b93505060406139b887828801613305565b925050606085013567ffffffffffffffff8111156139d9576139d8613169565b5b6139e587828801613940565b91505092959194509250565b6139fa8161344a565b82525050565b600061012082019050613a16600083018c6135e6565b613a23602083018b6139f1565b613a30604083018a6139f1565b613a3d6060830189613379565b613a4a60808301886135e6565b613a5760a08301876135e6565b613a6460c08301866135e6565b613a7160e08301856131ff565b613a7f6101008301846131ff565b9a9950505050505050505050565b60008060408385031215613aa457613aa3613164565b5b6000613ab2858286016133ba565b9250506020613ac3858286016133ba565b9150509250929050565b7f4e487b7100000000000000000000000000000000000000000000000000000000600052602260045260246000fd5b60006002820490506001821680613b1457607f821691505b60208210811415613b2857613b27613acd565b5b50919050565b7f4552433732313a20617070726f76656420717565727920666f72206e6f6e657860008201527f697374656e7420746f6b656e0000000000000000000000000000000000000000602082015250565b6000613b8a602c83613234565b9150613b9582613b2e565b604082019050919050565b60006020820190508181036000830152613bb981613b7d565b9050919050565b7f4552433732313a20617070726f76616c20746f2063757272656e74206f776e6560008201527f7200000000000000000000000000000000000000000000000000000000000000602082015250565b6000613c1c602183613234565b9150613c2782613bc0565b604082019050919050565b60006020820190508181036000830152613c4b81613c0f565b9050919050565b7f4552433732313a20617070726f76652063616c6c6572206973206e6f74206f7760008201527f6e6572206e6f7220617070726f76656420666f7220616c6c0000000000000000602082015250565b6000613cae603883613234565b9150613cb982613c52565b604082019050919050565b60006020820190508181036000830152613cdd81613ca1565b9050919050565b7f4e487b7100000000000000000000000000000000000000000000000000000000600052601160045260246000fd5b6000613d1e826132e4565b9150613d29836132e4565b925082821015613d3c57613d3b613ce4565b5b828203905092915050565b6000613d52826132e4565b9150613d5d836132e4565b9250827fffffffffffffffffffffffffffffffffffffffffffffffffffffffffffffffff03821115613d9257613d91613ce4565b5b828201905092915050565b7f4e487b7100000000000000000000000000000000000000000000000000000000600052603260045260246000fd5b6000613dd7826132e4565b91507fffffffffffffffffffffffffffffffffffffffffffffffffffffffffffffffff821415613e0a57613e09613ce4565b5b600182019050919050565b7f4552433732313a207472616e736665722063616c6c6572206973206e6f74206f60008201527f776e6572206e6f7220617070726f766564000000000000000000000000000000602082015250565b6000613e71603183613234565b9150613e7c82613e15565b604082019050919050565b60006020820190508181036000830152613ea081613e64565b9050919050565b7f4552433732313a206f776e657220717565727920666f72206e6f6e657869737460008201527f656e7420746f6b656e0000000000000000000000000000000000000000000000602082015250565b6000613f03602983613234565b9150613f0e82613ea7565b604082019050919050565b60006020820190508181036000830152613f3281613ef6565b9050919050565b7f4f6e6c79205665726966696564204163636f756e74732063616e20626520757360008201527f656420746f205665726966792041737365740000000000000000000000000000602082015250565b6000613f95603283613234565b9150613fa082613f39565b604082019050919050565b60006020820190508181036000830152613fc481613f88565b9050919050565b7f4552433732313a2062616c616e636520717565727920666f7220746865207a6560008201527f726f206164647265737300000000000000000000000000000000000000000000602082015250565b6000614027602a83613234565b915061403282613fcb565b604082019050919050565b600060208201905081810360008301526140568161401a565b9050919050565b7f4f6e6c79206d61726b6574706c616365206f776e65722063616e20757064617460008201527f65206c697374696e672070726963652e00000000000000000000000000000000602082015250565b60006140b9603083613234565b91506140c48261405d565b604082019050919050565b600060208201905081810360008301526140e8816140ac565b9050919050565b7f506c65617365207375626d6974207468652061736b696e67207072696365206960008201527f6e206f7264657220746f20636f6d706c65746520746865207075726368617365602082015250565b600061414b604083613234565b9150614156826140ef565b604082019050919050565b6000602082019050818103600083015261417a8161413e565b9050919050565b7f4f6e6c792056657269666965642050726f706572746965732063616e2062652060008201527f536f6c6400000000000000000000000000000000000000000000000000000000602082015250565b60006141dd602483613234565b91506141e882614181565b604082019050919050565b6000602082019050818103600083015261420c816141d0565b9050919050565b7f45524337323155524953746f726167653a2055524920717565727920666f722060008201527f6e6f6e6578697374656e7420746f6b656e000000000000000000000000000000602082015250565b600061426f603183613234565b915061427a82614213565b604082019050919050565b6000602082019050818103600083015261429e81614262565b9050919050565b600081905092915050565b60006142bb82613229565b6142c581856142a5565b93506142d5818560208601613245565b80840191505092915050565b60006142ed82856142b0565b91506142f982846142b0565b91508190509392505050565b7f4f6e6c79206974656d206f776e65722063616e20706572666f726d207468697360008201527f206f7065726174696f6e00000000000000000000000000000000000000000000602082015250565b6000614361602a83613234565b915061436c82614305565b604082019050919050565b6000602082019050818103600083015261439081614354565b9050919050565b7f5072696365206d75737420626520657175616c20746f206c697374696e67207060008201527f7269636500000000000000000000000000000000000000000000000000000000602082015250565b60006143f3602483613234565b91506143fe82614397565b604082019050919050565b60006020820190508181036000830152614422816143e6565b9050919050565b7f4552433732313a206f70657261746f7220717565727920666f72206e6f6e657860008201527f697374656e7420746f6b656e0000000000000000000000000000000000000000602082015250565b6000614485602c83613234565b915061449082614429565b604082019050919050565b600060208201905081810360008301526144b481614478565b9050919050565b7f4552433732313a207472616e736665722066726f6d20696e636f72726563742060008201527f6f776e6572000000000000000000000000000000000000000000000000000000602082015250565b6000614517602583613234565b9150614522826144bb565b604082019050919050565b600060208201905081810360008301526145468161450a565b9050919050565b7f4552433732313a207472616e7366657220746f20746865207a65726f2061646460008201527f7265737300000000000000000000000000000000000000000000000000000000602082015250565b60006145a9602483613234565b91506145b48261454d565b604082019050919050565b600060208201905081810360008301526145d88161459c565b9050919050565b7f4552433732313a206d696e7420746f20746865207a65726f2061646472657373600082015250565b6000614615602083613234565b9150614620826145df565b602082019050919050565b6000602082019050818103600083015261464481614608565b9050919050565b7f4552433732313a20746f6b656e20616c7265616479206d696e74656400000000600082015250565b6000614681601c83613234565b915061468c8261464b565b602082019050919050565b600060208201905081810360008301526146b081614674565b9050919050565b7f45524337323155524953746f726167653a2055524920736574206f66206e6f6e60008201527f6578697374656e7420746f6b656e000000000000000000000000000000000000602082015250565b6000614713602e83613234565b915061471e826146b7565b604082019050919050565b6000602082019050818103600083015261474281614706565b9050919050565b7f5072696365206d757374206265206174206c6561737420312077656900000000600082015250565b600061477f601c83613234565b915061478a82614749565b602082019050919050565b600060208201905081810360008301526147ae81614772565b9050919050565b60006080820190506147ca6000830187613379565b6147d76020830186613379565b6147e460408301856135e6565b6147f160608301846131ff565b95945050505050565b7f4552433732313a20617070726f766520746f2063616c6c657200000000000000600082015250565b6000614830601983613234565b915061483b826147fa565b602082019050919050565b6000602082019050818103600083015261485f81614823565b9050919050565b7f4552433732313a207472616e7366657220746f206e6f6e20455243373231526560008201527f63656976657220696d706c656d656e7465720000000000000000000000000000602082015250565b60006148c2603283613234565b91506148cd82614866565b604082019050919050565b600060208201905081810360008301526148f1816148b5565b9050919050565b7f4552433732314d657461646174613a2055524920717565727920666f72206e6f60008201527f6e6578697374656e7420746f6b656e0000000000000000000000000000000000602082015250565b6000614954602f83613234565b915061495f826148f8565b604082019050919050565b6000602082019050818103600083015261498381614947565b9050919050565b7f436f756e7465723a2064656372656d656e74206f766572666c6f770000000000600082015250565b60006149c0601b83613234565b91506149cb8261498a565b602082019050919050565b600060208201905081810360008301526149ef816149b3565b9050919050565b600081519050919050565b600082825260208201905092915050565b6000614a1d826149f6565b614a278185614a01565b9350614a37818560208601613245565b614a4081613278565b840191505092915050565b6000608082019050614a606000830187613379565b614a6d6020830186613379565b614a7a60408301856135e6565b8181036060830152614a8c8184614a12565b905095945050505050565b600081519050614aa68161319a565b92915050565b600060208284031215614ac257614ac1613164565b5b6000614ad084828501614a97565b91505092915050565b7f4e487b7100000000000000000000000000000000000000000000000000000000600052601260045260246000fd5b6000614b13826132e4565b9150614b1e836132e4565b925082614b2e57614b2d614ad9565b5b828204905092915050565b6000614b44826132e4565b9150614b4f836132e4565b925082614b5f57614b5e614ad9565b5b82820690509291505056fea26469706673582212200e30181e0ad0535d1f598c22b27712e29dece58c383f9f35b2430936996b43af64736f6c63430008090033",
  "immutableReferences": {},
  "source": "// SPDX-License-Identifier: MIT\npragma solidity ^0.8.4;\n\nimport \"@openzeppelin/contracts/utils/Counters.sol\";\nimport \"@openzeppelin/contracts/token/ERC721/extensions/ERC721URIStorage.sol\";\nimport \"@openzeppelin/contracts/token/ERC721/ERC721.sol\";\n\ncontract NFTMarketplace is ERC721URIStorage {\n    using Counters for Counters.Counter;\n    Counters.Counter private _tokenIds;\n    Counters.Counter private _itemsSold;\n\n    uint256 listingPrice = 1 ether;\n    address payable owner;\n\n    mapping(uint256 => MarketItem) public idToMarketItem;\n    mapping(address => bool) public isVerifier;\n\n    struct MarketItem {\n        uint256 tokenId;\n        address payable seller;\n        address payable owner;\n        address verifier;\n        uint256 price;\n        uint256 valuation;\n        uint256 valuationDate;\n        bool sold;\n        bool verified;\n    }\n\n    event MarketItemCreated(\n        uint256 indexed tokenId,\n        address seller,\n        address owner,\n        uint256 price,\n        bool sold\n    );\n\n    event TokenVerified(uint256 indexed tokenId, address verifier);\n\n    constructor() ERC721(\"Real Estate Token\", \"RST\") {\n        owner = payable(msg.sender);\n        isVerifier[msg.sender] = true;\n    }\n\n    /* Updates the listing price of the contract */\n    function updateListingPrice(uint256 _listingPrice) public payable {\n        require(\n            owner == msg.sender,\n            \"Only marketplace owner can update listing price.\"\n        );\n        listingPrice = _listingPrice;\n    }\n\n    /* Returns the listing price of the contract */\n    function getListingPrice() public view returns (uint256) {\n        return listingPrice;\n    }\n\n    /* Mints a token and lists it in the marketplace */\n    function createToken(string memory tokenURI, uint256 price)\n        public\n        payable\n        returns (uint256)\n    {\n        _tokenIds.increment();\n        uint256 newTokenId = _tokenIds.current();\n\n        _mint(msg.sender, newTokenId);\n        _setTokenURI(newTokenId, tokenURI);\n        createMarketItem(newTokenId, price);\n        return newTokenId;\n    }\n\n    function verifyToken(uint256 _tokenId, uint256 _valuation) public {\n        require(\n            isVerifier[msg.sender] == true,\n            \"Only Verified Accounts can be used to Verify Asset\"\n        );\n\n        idToMarketItem[_tokenId].valuation = _valuation;\n        idToMarketItem[_tokenId].valuationDate = block.timestamp;\n        idToMarketItem[_tokenId].verified = true;\n        idToMarketItem[_tokenId].verifier = msg.sender;\n\n        emit TokenVerified(_tokenId, msg.sender);\n    }\n\n    function createMarketItem(uint256 tokenId, uint256 price) private {\n        require(price > 0, \"Price must be at least 1 wei\");\n        require(\n            msg.value == listingPrice,\n            \"Price must be equal to listing price\"\n        );\n\n        idToMarketItem[tokenId] = MarketItem(\n            tokenId,\n            payable(msg.sender),\n            payable(address(this)),\n            address(0),\n            price,\n            0,\n            0,\n            false,\n            false\n        );\n\n        _transfer(msg.sender, address(this), tokenId);\n        emit MarketItemCreated(\n            tokenId,\n            msg.sender,\n            address(this),\n            price,\n            false\n        );\n    }\n\n    /* allows someone to resell a token they have purchased */\n    function resellToken(uint256 tokenId, uint256 price) public payable {\n        require(\n            idToMarketItem[tokenId].owner == msg.sender,\n            \"Only item owner can perform this operation\"\n        );\n        require(\n            idToMarketItem[tokenId].verified == true,\n            \"Only Verified Properties can be Sold\"\n        );\n        require(\n            msg.value == listingPrice,\n            \"Price must be equal to listing price\"\n        );\n        idToMarketItem[tokenId].sold = false;\n        idToMarketItem[tokenId].price = price;\n        idToMarketItem[tokenId].seller = payable(msg.sender);\n        idToMarketItem[tokenId].owner = payable(address(this));\n        _itemsSold.decrement();\n\n        _transfer(msg.sender, address(this), tokenId);\n    }\n\n    /* Creates the sale of a marketplace item */\n    /* Transfers ownership of the item, as well as funds between parties */\n    function createMarketSale(uint256 tokenId) public payable {\n        uint256 price = idToMarketItem[tokenId].price;\n        address seller = idToMarketItem[tokenId].seller;\n        require(\n            msg.value == price,\n            \"Please submit the asking price in order to complete the purchase\"\n        );\n        require(\n            idToMarketItem[tokenId].verified == true,\n            \"Only Verified Properties can be Sold\"\n        );\n        idToMarketItem[tokenId].owner = payable(msg.sender);\n        idToMarketItem[tokenId].sold = true;\n        idToMarketItem[tokenId].seller = payable(address(0));\n        _itemsSold.increment();\n        _transfer(address(this), msg.sender, tokenId);\n        payable(owner).transfer(listingPrice);\n        payable(seller).transfer(msg.value);\n    }\n\n    /* Returns all unsold market items */\n    function fetchMarketItems() public view returns (MarketItem[] memory) {\n        uint256 itemCount = _tokenIds.current();\n        uint256 unsoldItemCount = _tokenIds.current() - _itemsSold.current();\n        uint256 currentIndex = 0;\n\n        MarketItem[] memory items = new MarketItem[](unsoldItemCount);\n        for (uint256 i = 0; i < itemCount; i++) {\n            if (\n                idToMarketItem[i + 1].owner == address(this) &&\n                idToMarketItem[i + 1].verified == true\n            ) {\n                uint256 currentId = i + 1;\n                MarketItem storage currentItem = idToMarketItem[currentId];\n                items[currentIndex] = currentItem;\n                currentIndex += 1;\n            }\n        }\n        return items;\n    }\n\n    /* Returns only items that a user has purchased */\n    function fetchMyNFTs() public view returns (MarketItem[] memory) {\n        uint256 totalItemCount = _tokenIds.current();\n        uint256 itemCount = 0;\n        uint256 currentIndex = 0;\n\n        for (uint256 i = 0; i < totalItemCount; i++) {\n            if (idToMarketItem[i + 1].owner == msg.sender) {\n                itemCount += 1;\n            }\n        }\n\n        MarketItem[] memory items = new MarketItem[](itemCount);\n        for (uint256 i = 0; i < totalItemCount; i++) {\n            if (idToMarketItem[i + 1].owner == msg.sender) {\n                uint256 currentId = i + 1;\n                MarketItem storage currentItem = idToMarketItem[currentId];\n                items[currentIndex] = currentItem;\n                currentIndex += 1;\n            }\n        }\n        return items;\n    }\n\n    /* Returns only items a user has listed */\n    function fetchItemsListed() public view returns (MarketItem[] memory) {\n        uint256 totalItemCount = _tokenIds.current();\n        uint256 itemCount = 0;\n        uint256 currentIndex = 0;\n\n        for (uint256 i = 0; i < totalItemCount; i++) {\n            if (idToMarketItem[i + 1].seller == msg.sender) {\n                itemCount += 1;\n            }\n        }\n\n        MarketItem[] memory items = new MarketItem[](itemCount);\n        for (uint256 i = 0; i < totalItemCount; i++) {\n            if (idToMarketItem[i + 1].seller == msg.sender) {\n                uint256 currentId = i + 1;\n                MarketItem storage currentItem = idToMarketItem[currentId];\n                items[currentIndex] = currentItem;\n                currentIndex += 1;\n            }\n        }\n        return items;\n    }\n}\n",
  "sourcePath": "/home/samarth/Blockchain/BE Project/Group/cryptoacres/contracts/NFT.sol",
  "compiler": {
    "name": "solc",
    "version": "0.8.9+commit.e5eed63a.Emscripten.clang"
  },
  "schemaVersion": "3.4.3",
  "updatedAt": "2022-04-16T17:52:41.601Z",
  "devdoc": {
    "kind": "dev",
    "methods": {
      "approve(address,uint256)": {
        "details": "See {IERC721-approve}."
      },
      "balanceOf(address)": {
        "details": "See {IERC721-balanceOf}."
      },
      "getApproved(uint256)": {
        "details": "See {IERC721-getApproved}."
      },
      "isApprovedForAll(address,address)": {
        "details": "See {IERC721-isApprovedForAll}."
      },
      "name()": {
        "details": "See {IERC721Metadata-name}."
      },
      "ownerOf(uint256)": {
        "details": "See {IERC721-ownerOf}."
      },
      "safeTransferFrom(address,address,uint256)": {
        "details": "See {IERC721-safeTransferFrom}."
      },
      "safeTransferFrom(address,address,uint256,bytes)": {
        "details": "See {IERC721-safeTransferFrom}."
      },
      "setApprovalForAll(address,bool)": {
        "details": "See {IERC721-setApprovalForAll}."
      },
      "supportsInterface(bytes4)": {
        "details": "See {IERC165-supportsInterface}."
      },
      "symbol()": {
        "details": "See {IERC721Metadata-symbol}."
      },
      "tokenURI(uint256)": {
        "details": "See {IERC721Metadata-tokenURI}."
      },
      "transferFrom(address,address,uint256)": {
        "details": "See {IERC721-transferFrom}."
      }
    },
    "version": 1
  },
  "userdoc": {
    "kind": "user",
    "methods": {},
    "version": 1
  }
}