{
  "contractName": "NFTMarketplace",
  "abi": [
    {
      "inputs": [],
      "stateMutability": "nonpayable",
      "type": "constructor"
    },
    {
      "anonymous": false,
      "inputs": [
        {
          "indexed": true,
          "internalType": "address",
          "name": "owner",
          "type": "address"
        },
        {
          "indexed": true,
          "internalType": "address",
          "name": "approved",
          "type": "address"
        },
        {
          "indexed": true,
          "internalType": "uint256",
          "name": "tokenId",
          "type": "uint256"
        }
      ],
      "name": "Approval",
      "type": "event"
    },
    {
      "anonymous": false,
      "inputs": [
        {
          "indexed": true,
          "internalType": "address",
          "name": "owner",
          "type": "address"
        },
        {
          "indexed": true,
          "internalType": "address",
          "name": "operator",
          "type": "address"
        },
        {
          "indexed": false,
          "internalType": "bool",
          "name": "approved",
          "type": "bool"
        }
      ],
      "name": "ApprovalForAll",
      "type": "event"
    },
    {
      "anonymous": false,
      "inputs": [
        {
          "indexed": true,
          "internalType": "uint256",
          "name": "tokenId",
          "type": "uint256"
        },
        {
          "indexed": false,
          "internalType": "address",
          "name": "seller",
          "type": "address"
        },
        {
          "indexed": false,
          "internalType": "address",
          "name": "owner",
          "type": "address"
        },
        {
          "indexed": false,
          "internalType": "uint256",
          "name": "price",
          "type": "uint256"
        },
        {
          "indexed": false,
          "internalType": "bool",
          "name": "sold",
          "type": "bool"
        }
      ],
      "name": "MarketItemCreated",
      "type": "event"
    },
    {
      "anonymous": false,
      "inputs": [
        {
          "indexed": true,
          "internalType": "uint256",
          "name": "tokenId",
          "type": "uint256"
        },
        {
          "indexed": false,
          "internalType": "address",
          "name": "verifier",
          "type": "address"
        }
      ],
      "name": "TokenVerified",
      "type": "event"
    },
    {
      "anonymous": false,
      "inputs": [
        {
          "indexed": true,
          "internalType": "address",
          "name": "from",
          "type": "address"
        },
        {
          "indexed": true,
          "internalType": "address",
          "name": "to",
          "type": "address"
        },
        {
          "indexed": true,
          "internalType": "uint256",
          "name": "tokenId",
          "type": "uint256"
        }
      ],
      "name": "Transfer",
      "type": "event"
    },
    {
      "inputs": [
        {
          "internalType": "address",
          "name": "to",
          "type": "address"
        },
        {
          "internalType": "uint256",
          "name": "tokenId",
          "type": "uint256"
        }
      ],
      "name": "approve",
      "outputs": [],
      "stateMutability": "nonpayable",
      "type": "function"
    },
    {
      "inputs": [
        {
          "internalType": "address",
          "name": "owner",
          "type": "address"
        }
      ],
      "name": "balanceOf",
      "outputs": [
        {
          "internalType": "uint256",
          "name": "",
          "type": "uint256"
        }
      ],
      "stateMutability": "view",
      "type": "function",
      "constant": true
    },
    {
      "inputs": [
        {
          "internalType": "uint256",
          "name": "tokenId",
          "type": "uint256"
        }
      ],
      "name": "getApproved",
      "outputs": [
        {
          "internalType": "address",
          "name": "",
          "type": "address"
        }
      ],
      "stateMutability": "view",
      "type": "function",
      "constant": true
    },
    {
      "inputs": [
        {
          "internalType": "uint256",
          "name": "",
          "type": "uint256"
        }
      ],
      "name": "idToMarketItem",
      "outputs": [
        {
          "internalType": "uint256",
          "name": "tokenId",
          "type": "uint256"
        },
        {
          "internalType": "address payable",
          "name": "seller",
          "type": "address"
        },
        {
          "internalType": "address payable",
          "name": "owner",
          "type": "address"
        },
        {
          "internalType": "address",
          "name": "verifier",
          "type": "address"
        },
        {
          "internalType": "uint256",
          "name": "price",
          "type": "uint256"
        },
        {
          "internalType": "uint256",
          "name": "valuation",
          "type": "uint256"
        },
        {
          "internalType": "uint256",
          "name": "pricePSF",
          "type": "uint256"
        },
        {
          "internalType": "uint256",
          "name": "valuationDate",
          "type": "uint256"
        },
        {
          "internalType": "bool",
          "name": "sold",
          "type": "bool"
        },
        {
          "internalType": "bool",
          "name": "verified",
          "type": "bool"
        }
      ],
      "stateMutability": "view",
      "type": "function",
      "constant": true
    },
    {
      "inputs": [
        {
          "internalType": "address",
          "name": "owner",
          "type": "address"
        },
        {
          "internalType": "address",
          "name": "operator",
          "type": "address"
        }
      ],
      "name": "isApprovedForAll",
      "outputs": [
        {
          "internalType": "bool",
          "name": "",
          "type": "bool"
        }
      ],
      "stateMutability": "view",
      "type": "function",
      "constant": true
    },
    {
      "inputs": [
        {
          "internalType": "address",
          "name": "",
          "type": "address"
        }
      ],
      "name": "isVerifier",
      "outputs": [
        {
          "internalType": "bool",
          "name": "",
          "type": "bool"
        }
      ],
      "stateMutability": "view",
      "type": "function",
      "constant": true
    },
    {
      "inputs": [],
      "name": "name",
      "outputs": [
        {
          "internalType": "string",
          "name": "",
          "type": "string"
        }
      ],
      "stateMutability": "view",
      "type": "function",
      "constant": true
    },
    {
      "inputs": [],
      "name": "owner",
      "outputs": [
        {
          "internalType": "address payable",
          "name": "",
          "type": "address"
        }
      ],
      "stateMutability": "view",
      "type": "function",
      "constant": true
    },
    {
      "inputs": [
        {
          "internalType": "uint256",
          "name": "tokenId",
          "type": "uint256"
        }
      ],
      "name": "ownerOf",
      "outputs": [
        {
          "internalType": "address",
          "name": "",
          "type": "address"
        }
      ],
      "stateMutability": "view",
      "type": "function",
      "constant": true
    },
    {
      "inputs": [
        {
          "internalType": "address",
          "name": "from",
          "type": "address"
        },
        {
          "internalType": "address",
          "name": "to",
          "type": "address"
        },
        {
          "internalType": "uint256",
          "name": "tokenId",
          "type": "uint256"
        }
      ],
      "name": "safeTransferFrom",
      "outputs": [],
      "stateMutability": "nonpayable",
      "type": "function"
    },
    {
      "inputs": [
        {
          "internalType": "address",
          "name": "from",
          "type": "address"
        },
        {
          "internalType": "address",
          "name": "to",
          "type": "address"
        },
        {
          "internalType": "uint256",
          "name": "tokenId",
          "type": "uint256"
        },
        {
          "internalType": "bytes",
          "name": "_data",
          "type": "bytes"
        }
      ],
      "name": "safeTransferFrom",
      "outputs": [],
      "stateMutability": "nonpayable",
      "type": "function"
    },
    {
      "inputs": [
        {
          "internalType": "address",
          "name": "operator",
          "type": "address"
        },
        {
          "internalType": "bool",
          "name": "approved",
          "type": "bool"
        }
      ],
      "name": "setApprovalForAll",
      "outputs": [],
      "stateMutability": "nonpayable",
      "type": "function"
    },
    {
      "inputs": [
        {
          "internalType": "bytes4",
          "name": "interfaceId",
          "type": "bytes4"
        }
      ],
      "name": "supportsInterface",
      "outputs": [
        {
          "internalType": "bool",
          "name": "",
          "type": "bool"
        }
      ],
      "stateMutability": "view",
      "type": "function",
      "constant": true
    },
    {
      "inputs": [],
      "name": "symbol",
      "outputs": [
        {
          "internalType": "string",
          "name": "",
          "type": "string"
        }
      ],
      "stateMutability": "view",
      "type": "function",
      "constant": true
    },
    {
      "inputs": [
        {
          "internalType": "uint256",
          "name": "tokenId",
          "type": "uint256"
        }
      ],
      "name": "tokenURI",
      "outputs": [
        {
          "internalType": "string",
          "name": "",
          "type": "string"
        }
      ],
      "stateMutability": "view",
      "type": "function",
      "constant": true
    },
    {
      "inputs": [
        {
          "internalType": "address",
          "name": "from",
          "type": "address"
        },
        {
          "internalType": "address",
          "name": "to",
          "type": "address"
        },
        {
          "internalType": "uint256",
          "name": "tokenId",
          "type": "uint256"
        }
      ],
      "name": "transferFrom",
      "outputs": [],
      "stateMutability": "nonpayable",
      "type": "function"
    },
    {
      "inputs": [
        {
          "internalType": "uint256",
          "name": "_listingPrice",
          "type": "uint256"
        }
      ],
      "name": "updateListingPrice",
      "outputs": [],
      "stateMutability": "payable",
      "type": "function",
      "payable": true
    },
    {
      "inputs": [],
      "name": "getListingPrice",
      "outputs": [
        {
          "internalType": "uint256",
          "name": "",
          "type": "uint256"
        }
      ],
      "stateMutability": "view",
      "type": "function",
      "constant": true
    },
    {
      "inputs": [
        {
          "internalType": "string",
          "name": "tokenURI",
          "type": "string"
        },
        {
          "internalType": "uint256",
          "name": "price",
          "type": "uint256"
        }
      ],
      "name": "createToken",
      "outputs": [
        {
          "internalType": "uint256",
          "name": "",
          "type": "uint256"
        }
      ],
      "stateMutability": "payable",
      "type": "function",
      "payable": true
    },
    {
      "inputs": [
        {
          "internalType": "uint256",
          "name": "_tokenId",
          "type": "uint256"
        },
        {
          "internalType": "uint256",
          "name": "_valuation",
          "type": "uint256"
        },
        {
          "internalType": "uint256",
          "name": "_pricePSF",
          "type": "uint256"
        }
      ],
      "name": "verifyToken",
      "outputs": [],
      "stateMutability": "nonpayable",
      "type": "function"
    },
    {
      "inputs": [
        {
          "internalType": "uint256",
          "name": "tokenId",
          "type": "uint256"
        },
        {
          "internalType": "uint256",
          "name": "price",
          "type": "uint256"
        }
      ],
      "name": "resellToken",
      "outputs": [],
      "stateMutability": "payable",
      "type": "function",
      "payable": true
    },
    {
      "inputs": [
        {
          "internalType": "uint256",
          "name": "tokenId",
          "type": "uint256"
        }
      ],
      "name": "createMarketSale",
      "outputs": [],
      "stateMutability": "payable",
      "type": "function",
      "payable": true
    },
    {
      "inputs": [],
      "name": "fetchMarketItems",
      "outputs": [
        {
          "components": [
            {
              "internalType": "uint256",
              "name": "tokenId",
              "type": "uint256"
            },
            {
              "internalType": "address payable",
              "name": "seller",
              "type": "address"
            },
            {
              "internalType": "address payable",
              "name": "owner",
              "type": "address"
            },
            {
              "internalType": "address",
              "name": "verifier",
              "type": "address"
            },
            {
              "internalType": "uint256",
              "name": "price",
              "type": "uint256"
            },
            {
              "internalType": "uint256",
              "name": "valuation",
              "type": "uint256"
            },
            {
              "internalType": "uint256",
              "name": "pricePSF",
              "type": "uint256"
            },
            {
              "internalType": "uint256",
              "name": "valuationDate",
              "type": "uint256"
            },
            {
              "internalType": "bool",
              "name": "sold",
              "type": "bool"
            },
            {
              "internalType": "bool",
              "name": "verified",
              "type": "bool"
            }
          ],
          "internalType": "struct NFTMarketplace.MarketItem[]",
          "name": "",
          "type": "tuple[]"
        }
      ],
      "stateMutability": "view",
      "type": "function",
      "constant": true
    },
    {
      "inputs": [],
      "name": "fetchMyNFTs",
      "outputs": [
        {
          "components": [
            {
              "internalType": "uint256",
              "name": "tokenId",
              "type": "uint256"
            },
            {
              "internalType": "address payable",
              "name": "seller",
              "type": "address"
            },
            {
              "internalType": "address payable",
              "name": "owner",
              "type": "address"
            },
            {
              "internalType": "address",
              "name": "verifier",
              "type": "address"
            },
            {
              "internalType": "uint256",
              "name": "price",
              "type": "uint256"
            },
            {
              "internalType": "uint256",
              "name": "valuation",
              "type": "uint256"
            },
            {
              "internalType": "uint256",
              "name": "pricePSF",
              "type": "uint256"
            },
            {
              "internalType": "uint256",
              "name": "valuationDate",
              "type": "uint256"
            },
            {
              "internalType": "bool",
              "name": "sold",
              "type": "bool"
            },
            {
              "internalType": "bool",
              "name": "verified",
              "type": "bool"
            }
          ],
          "internalType": "struct NFTMarketplace.MarketItem[]",
          "name": "",
          "type": "tuple[]"
        }
      ],
      "stateMutability": "view",
      "type": "function",
      "constant": true
    },
    {
      "inputs": [],
      "name": "fetchItemsListed",
      "outputs": [
        {
          "components": [
            {
              "internalType": "uint256",
              "name": "tokenId",
              "type": "uint256"
            },
            {
              "internalType": "address payable",
              "name": "seller",
              "type": "address"
            },
            {
              "internalType": "address payable",
              "name": "owner",
              "type": "address"
            },
            {
              "internalType": "address",
              "name": "verifier",
              "type": "address"
            },
            {
              "internalType": "uint256",
              "name": "price",
              "type": "uint256"
            },
            {
              "internalType": "uint256",
              "name": "valuation",
              "type": "uint256"
            },
            {
              "internalType": "uint256",
              "name": "pricePSF",
              "type": "uint256"
            },
            {
              "internalType": "uint256",
              "name": "valuationDate",
              "type": "uint256"
            },
            {
              "internalType": "bool",
              "name": "sold",
              "type": "bool"
            },
            {
              "internalType": "bool",
              "name": "verified",
              "type": "bool"
            }
          ],
          "internalType": "struct NFTMarketplace.MarketItem[]",
          "name": "",
          "type": "tuple[]"
        }
      ],
      "stateMutability": "view",
      "type": "function",
      "constant": true
    },
    {
      "inputs": [],
      "name": "fetchUnverifiedTokens",
      "outputs": [
        {
          "components": [
            {
              "internalType": "uint256",
              "name": "tokenId",
              "type": "uint256"
            },
            {
              "internalType": "address payable",
              "name": "seller",
              "type": "address"
            },
            {
              "internalType": "address payable",
              "name": "owner",
              "type": "address"
            },
            {
              "internalType": "address",
              "name": "verifier",
              "type": "address"
            },
            {
              "internalType": "uint256",
              "name": "price",
              "type": "uint256"
            },
            {
              "internalType": "uint256",
              "name": "valuation",
              "type": "uint256"
            },
            {
              "internalType": "uint256",
              "name": "pricePSF",
              "type": "uint256"
            },
            {
              "internalType": "uint256",
              "name": "valuationDate",
              "type": "uint256"
            },
            {
              "internalType": "bool",
              "name": "sold",
              "type": "bool"
            },
            {
              "internalType": "bool",
              "name": "verified",
              "type": "bool"
            }
          ],
          "internalType": "struct NFTMarketplace.MarketItem[]",
          "name": "",
          "type": "tuple[]"
        }
      ],
      "stateMutability": "view",
      "type": "function",
      "constant": true
    }
  ],
  "bytecode": "0x60806040526658d15e17628000600a553480156200001c57600080fd5b506040518060400160405280601181526020017f5265616c2045737461746520546f6b656e0000000000000000000000000000008152506040518060400160405280600381526020017f52535400000000000000000000000000000000000000000000000000000000008152508160009080519060200190620000a19291906200015c565b508060019080519060200190620000ba9291906200015c565b50505033600b60006101000a81548173ffffffffffffffffffffffffffffffffffffffff021916908373ffffffffffffffffffffffffffffffffffffffff1602179055506001600d60003373ffffffffffffffffffffffffffffffffffffffff1673ffffffffffffffffffffffffffffffffffffffff16815260200190815260200160002060006101000a81548160ff02191690831515021790555062000271565b8280546200016a906200023b565b90600052602060002090601f0160209004810192826200018e5760008555620001da565b82601f10620001a957805160ff1916838001178555620001da565b82800160010185558215620001da579182015b82811115620001d9578251825591602001919060010190620001bc565b5b509050620001e99190620001ed565b5090565b5b8082111562000208576000816000905550600101620001ee565b5090565b7f4e487b7100000000000000000000000000000000000000000000000000000000600052602260045260246000fd5b600060028204905060018216806200025457607f821691505b602082108114156200026b576200026a6200020c565b5b50919050565b61500f80620002816000396000f3fe6080604052600436106101815760003560e01c806370a08231116100d1578063b025c2b61161008a578063c87b56dd11610064578063c87b56dd1461056d578063e219fc75146105aa578063e61a70c0146105c6578063e985e9c51461060c57610181565b8063b025c2b6146104fd578063b88d4fde14610528578063be9af5361461055157610181565b806370a08231146103f557806372b3b620146104325780638da5cb5b1461046257806395d89b411461048d578063a22cb465146104b8578063ae677aa3146104e157610181565b8063202e37401161013e57806342842e0e1161011857806342842e0e1461033b57806345f8fa80146103645780636352211e1461038f5780637007f481146103cc57610181565b8063202e3740146102aa57806323b872dd146102d557806333105218146102fe57610181565b806301ffc9a71461018657806306fdde03146101c3578063081812fc146101ee578063095ea7b31461022b5780630f08efe01461025457806312e855851461027f575b600080fd5b34801561019257600080fd5b506101ad60048036038101906101a8919061357d565b610649565b6040516101ba91906135c5565b60405180910390f35b3480156101cf57600080fd5b506101d861072b565b6040516101e59190613679565b60405180910390f35b3480156101fa57600080fd5b50610215600480360381019061021091906136d1565b6107bd565b604051610222919061373f565b60405180910390f35b34801561023757600080fd5b50610252600480360381019061024d9190613786565b610842565b005b34801561026057600080fd5b5061026961095a565b6040516102769190613990565b60405180910390f35b34801561028b57600080fd5b50610294610c7e565b6040516102a191906139c1565b60405180910390f35b3480156102b657600080fd5b506102bf610c88565b6040516102cc9190613990565b60405180910390f35b3480156102e157600080fd5b506102fc60048036038101906102f791906139dc565b611006565b005b34801561030a57600080fd5b5061032560048036038101906103209190613a2f565b611066565b60405161033291906135c5565b60405180910390f35b34801561034757600080fd5b50610362600480360381019061035d91906139dc565b611086565b005b34801561037057600080fd5b506103796110a6565b6040516103869190613990565b60405180910390f35b34801561039b57600080fd5b506103b660048036038101906103b191906136d1565b611424565b6040516103c3919061373f565b60405180910390f35b3480156103d857600080fd5b506103f360048036038101906103ee9190613a5c565b6114d6565b005b34801561040157600080fd5b5061041c60048036038101906104179190613a2f565b611685565b60405161042991906139c1565b60405180910390f35b61044c60048036038101906104479190613be4565b61173d565b60405161045991906139c1565b60405180910390f35b34801561046e57600080fd5b5061047761177f565b6040516104849190613c4f565b60405180910390f35b34801561049957600080fd5b506104a26117a5565b6040516104af9190613679565b60405180910390f35b3480156104c457600080fd5b506104df60048036038101906104da9190613c96565b611837565b005b6104fb60048036038101906104f691906136d1565b61184d565b005b34801561050957600080fd5b506105126118e7565b60405161051f9190613990565b60405180910390f35b34801561053457600080fd5b5061054f600480360381019061054a9190613d77565b611b9d565b005b61056b600480360381019061056691906136d1565b611bff565b005b34801561057957600080fd5b50610594600480360381019061058f91906136d1565b611ea7565b6040516105a19190613679565b60405180910390f35b6105c460048036038101906105bf9190613dfa565b611ff9565b005b3480156105d257600080fd5b506105ed60048036038101906105e891906136d1565b612258565b6040516106039a99989796959493929190613e3a565b60405180910390f35b34801561061857600080fd5b50610633600480360381019061062e9190613ed6565b612326565b60405161064091906135c5565b60405180910390f35b60007f80ac58cd000000000000000000000000000000000000000000000000000000007bffffffffffffffffffffffffffffffffffffffffffffffffffffffff1916827bffffffffffffffffffffffffffffffffffffffffffffffffffffffff1916148061071457507f5b5e139f000000000000000000000000000000000000000000000000000000007bffffffffffffffffffffffffffffffffffffffffffffffffffffffff1916827bffffffffffffffffffffffffffffffffffffffffffffffffffffffff1916145b806107245750610723826123ba565b5b9050919050565b60606000805461073a90613f45565b80601f016020809104026020016040519081016040528092919081815260200182805461076690613f45565b80156107b35780601f10610788576101008083540402835291602001916107b3565b820191906000526020600020905b81548152906001019060200180831161079657829003601f168201915b5050505050905090565b60006107c882612424565b610807576040517f08c379a00000000000000000000000000000000000000000000000000000000081526004016107fe90613fe9565b60405180910390fd5b6004600083815260200190815260200160002060009054906101000a900473ffffffffffffffffffffffffffffffffffffffff169050919050565b600061084d82611424565b90508073ffffffffffffffffffffffffffffffffffffffff168373ffffffffffffffffffffffffffffffffffffffff1614156108be576040517f08c379a00000000000000000000000000000000000000000000000000000000081526004016108b59061407b565b60405180910390fd5b8073ffffffffffffffffffffffffffffffffffffffff166108dd612490565b73ffffffffffffffffffffffffffffffffffffffff16148061090c575061090b81610906612490565b612326565b5b61094b576040517f08c379a00000000000000000000000000000000000000000000000000000000081526004016109429061410d565b60405180910390fd5b6109558383612498565b505050565b606060006109686007612551565b905060006109766009612551565b90506000808267ffffffffffffffff81111561099557610994613ab9565b5b6040519080825280602002602001820160405280156109ce57816020015b6109bb6133d5565b8152602001906001900390816109b35790505b50905060005b84811015610c73573073ffffffffffffffffffffffffffffffffffffffff16600c6000600184610a04919061415c565b815260200190815260200160002060020160009054906101000a900473ffffffffffffffffffffffffffffffffffffffff1673ffffffffffffffffffffffffffffffffffffffff16148015610a8c575060011515600c6000600184610a69919061415c565b815260200190815260200160002060080160019054906101000a900460ff161515145b15610c60576000600182610aa0919061415c565b90506000600c600083815260200190815260200160002090508060405180610140016040529081600082015481526020016001820160009054906101000a900473ffffffffffffffffffffffffffffffffffffffff1673ffffffffffffffffffffffffffffffffffffffff1673ffffffffffffffffffffffffffffffffffffffff1681526020016002820160009054906101000a900473ffffffffffffffffffffffffffffffffffffffff1673ffffffffffffffffffffffffffffffffffffffff1673ffffffffffffffffffffffffffffffffffffffff1681526020016003820160009054906101000a900473ffffffffffffffffffffffffffffffffffffffff1673ffffffffffffffffffffffffffffffffffffffff1673ffffffffffffffffffffffffffffffffffffffff168152602001600482015481526020016005820154815260200160068201548152602001600782015481526020016008820160009054906101000a900460ff161515151581526020016008820160019054906101000a900460ff161515151581525050848681518110610c4357610c426141b2565b5b6020026020010181905250600185610c5b919061415c565b945050505b8080610c6b906141e1565b9150506109d4565b508094505050505090565b6000600a54905090565b60606000610c966007612551565b905060008060005b83811015610d3f573373ffffffffffffffffffffffffffffffffffffffff16600c6000600184610cce919061415c565b815260200190815260200160002060020160009054906101000a900473ffffffffffffffffffffffffffffffffffffffff1673ffffffffffffffffffffffffffffffffffffffff161415610d2c57600183610d29919061415c565b92505b8080610d37906141e1565b915050610c9e565b5060008267ffffffffffffffff811115610d5c57610d5b613ab9565b5b604051908082528060200260200182016040528015610d9557816020015b610d826133d5565b815260200190600190039081610d7a5790505b50905060005b84811015610ffb573373ffffffffffffffffffffffffffffffffffffffff16600c6000600184610dcb919061415c565b815260200190815260200160002060020160009054906101000a900473ffffffffffffffffffffffffffffffffffffffff1673ffffffffffffffffffffffffffffffffffffffff161415610fe8576000600182610e28919061415c565b90506000600c600083815260200190815260200160002090508060405180610140016040529081600082015481526020016001820160009054906101000a900473ffffffffffffffffffffffffffffffffffffffff1673ffffffffffffffffffffffffffffffffffffffff1673ffffffffffffffffffffffffffffffffffffffff1681526020016002820160009054906101000a900473ffffffffffffffffffffffffffffffffffffffff1673ffffffffffffffffffffffffffffffffffffffff1673ffffffffffffffffffffffffffffffffffffffff1681526020016003820160009054906101000a900473ffffffffffffffffffffffffffffffffffffffff1673ffffffffffffffffffffffffffffffffffffffff1673ffffffffffffffffffffffffffffffffffffffff168152602001600482015481526020016005820154815260200160068201548152602001600782015481526020016008820160009054906101000a900460ff161515151581526020016008820160019054906101000a900460ff161515151581525050848681518110610fcb57610fca6141b2565b5b6020026020010181905250600185610fe3919061415c565b945050505b8080610ff3906141e1565b915050610d9b565b508094505050505090565b611017611011612490565b8261255f565b611056576040517f08c379a000000000000000000000000000000000000000000000000000000000815260040161104d9061429c565b60405180910390fd5b61106183838361263d565b505050565b600d6020528060005260406000206000915054906101000a900460ff1681565b6110a183838360405180602001604052806000815250611b9d565b505050565b606060006110b46007612551565b905060008060005b8381101561115d573373ffffffffffffffffffffffffffffffffffffffff16600c60006001846110ec919061415c565b815260200190815260200160002060010160009054906101000a900473ffffffffffffffffffffffffffffffffffffffff1673ffffffffffffffffffffffffffffffffffffffff16141561114a57600183611147919061415c565b92505b8080611155906141e1565b9150506110bc565b5060008267ffffffffffffffff81111561117a57611179613ab9565b5b6040519080825280602002602001820160405280156111b357816020015b6111a06133d5565b8152602001906001900390816111985790505b50905060005b84811015611419573373ffffffffffffffffffffffffffffffffffffffff16600c60006001846111e9919061415c565b815260200190815260200160002060010160009054906101000a900473ffffffffffffffffffffffffffffffffffffffff1673ffffffffffffffffffffffffffffffffffffffff161415611406576000600182611246919061415c565b90506000600c600083815260200190815260200160002090508060405180610140016040529081600082015481526020016001820160009054906101000a900473ffffffffffffffffffffffffffffffffffffffff1673ffffffffffffffffffffffffffffffffffffffff1673ffffffffffffffffffffffffffffffffffffffff1681526020016002820160009054906101000a900473ffffffffffffffffffffffffffffffffffffffff1673ffffffffffffffffffffffffffffffffffffffff1673ffffffffffffffffffffffffffffffffffffffff1681526020016003820160009054906101000a900473ffffffffffffffffffffffffffffffffffffffff1673ffffffffffffffffffffffffffffffffffffffff1673ffffffffffffffffffffffffffffffffffffffff168152602001600482015481526020016005820154815260200160068201548152602001600782015481526020016008820160009054906101000a900460ff161515151581526020016008820160019054906101000a900460ff1615151515815250508486815181106113e9576113e86141b2565b5b6020026020010181905250600185611401919061415c565b945050505b8080611411906141e1565b9150506111b9565b508094505050505090565b6000806002600084815260200190815260200160002060009054906101000a900473ffffffffffffffffffffffffffffffffffffffff169050600073ffffffffffffffffffffffffffffffffffffffff168173ffffffffffffffffffffffffffffffffffffffff1614156114cd576040517f08c379a00000000000000000000000000000000000000000000000000000000081526004016114c49061432e565b60405180910390fd5b80915050919050565b60011515600d60003373ffffffffffffffffffffffffffffffffffffffff1673ffffffffffffffffffffffffffffffffffffffff16815260200190815260200160002060009054906101000a900460ff16151514611569576040517f08c379a0000000000000000000000000000000000000000000000000000000008152600401611560906143c0565b60405180910390fd5b61157360096128a4565b81600c60008581526020019081526020016000206005018190555042600c6000858152602001908152602001600020600701819055506001600c600085815260200190815260200160002060080160016101000a81548160ff02191690831515021790555080600c60008581526020019081526020016000206006018190555033600c600085815260200190815260200160002060030160006101000a81548173ffffffffffffffffffffffffffffffffffffffff021916908373ffffffffffffffffffffffffffffffffffffffff160217905550827f4a3d1907355e486fa9dec825eb6c9381047283bfe4872c21db8adbffab9168a633604051611678919061373f565b60405180910390a2505050565b60008073ffffffffffffffffffffffffffffffffffffffff168273ffffffffffffffffffffffffffffffffffffffff1614156116f6576040517f08c379a00000000000000000000000000000000000000000000000000000000081526004016116ed90614452565b60405180910390fd5b600360008373ffffffffffffffffffffffffffffffffffffffff1673ffffffffffffffffffffffffffffffffffffffff168152602001908152602001600020549050919050565b600061174960076128a4565b60006117556007612551565b905061176133826128ba565b61176b8185612a94565b6117758184612b08565b8091505092915050565b600b60009054906101000a900473ffffffffffffffffffffffffffffffffffffffff1681565b6060600180546117b490613f45565b80601f01602080910402602001604051908101604052809291908181526020018280546117e090613f45565b801561182d5780601f106118025761010080835404028352916020019161182d565b820191906000526020600020905b81548152906001019060200180831161181057829003601f168201915b5050505050905090565b611849611842612490565b8383612dcd565b5050565b3373ffffffffffffffffffffffffffffffffffffffff16600b60009054906101000a900473ffffffffffffffffffffffffffffffffffffffff1673ffffffffffffffffffffffffffffffffffffffff16146118dd576040517f08c379a00000000000000000000000000000000000000000000000000000000081526004016118d4906144e4565b60405180910390fd5b80600a8190555050565b606060006118f56007612551565b905060006119036009612551565b905060008082846119149190614504565b67ffffffffffffffff81111561192d5761192c613ab9565b5b60405190808252806020026020018201604052801561196657816020015b6119536133d5565b81526020019060019003908161194b5790505b50905060005b84811015611b925760001515600c6000600184611989919061415c565b815260200190815260200160002060080160019054906101000a900460ff1615151415611b7f5760006001826119bf919061415c565b90506000600c600083815260200190815260200160002090508060405180610140016040529081600082015481526020016001820160009054906101000a900473ffffffffffffffffffffffffffffffffffffffff1673ffffffffffffffffffffffffffffffffffffffff1673ffffffffffffffffffffffffffffffffffffffff1681526020016002820160009054906101000a900473ffffffffffffffffffffffffffffffffffffffff1673ffffffffffffffffffffffffffffffffffffffff1673ffffffffffffffffffffffffffffffffffffffff1681526020016003820160009054906101000a900473ffffffffffffffffffffffffffffffffffffffff1673ffffffffffffffffffffffffffffffffffffffff1673ffffffffffffffffffffffffffffffffffffffff168152602001600482015481526020016005820154815260200160068201548152602001600782015481526020016008820160009054906101000a900460ff161515151581526020016008820160019054906101000a900460ff161515151581525050848681518110611b6257611b616141b2565b5b6020026020010181905250600185611b7a919061415c565b945050505b8080611b8a906141e1565b91505061196c565b508094505050505090565b611bae611ba8612490565b8361255f565b611bed576040517f08c379a0000000000000000000000000000000000000000000000000000000008152600401611be49061429c565b60405180910390fd5b611bf984848484612f3a565b50505050565b6000600c60008381526020019081526020016000206004015490506000600c600084815260200190815260200160002060010160009054906101000a900473ffffffffffffffffffffffffffffffffffffffff169050813414611c97576040517f08c379a0000000000000000000000000000000000000000000000000000000008152600401611c8e906145aa565b60405180910390fd5b60011515600c600085815260200190815260200160002060080160019054906101000a900460ff16151514611d01576040517f08c379a0000000000000000000000000000000000000000000000000000000008152600401611cf89061463c565b60405180910390fd5b33600c600085815260200190815260200160002060020160006101000a81548173ffffffffffffffffffffffffffffffffffffffff021916908373ffffffffffffffffffffffffffffffffffffffff1602179055506001600c600085815260200190815260200160002060080160006101000a81548160ff0219169083151502179055506000600c600085815260200190815260200160002060010160006101000a81548173ffffffffffffffffffffffffffffffffffffffff021916908373ffffffffffffffffffffffffffffffffffffffff160217905550611de560086128a4565b611df030338561263d565b600b60009054906101000a900473ffffffffffffffffffffffffffffffffffffffff1673ffffffffffffffffffffffffffffffffffffffff166108fc600a549081150290604051600060405180830381858888f19350505050158015611e5a573d6000803e3d6000fd5b508073ffffffffffffffffffffffffffffffffffffffff166108fc349081150290604051600060405180830381858888f19350505050158015611ea1573d6000803e3d6000fd5b50505050565b6060611eb282612424565b611ef1576040517f08c379a0000000000000000000000000000000000000000000000000000000008152600401611ee8906146ce565b60405180910390fd5b6000600660008481526020019081526020016000208054611f1190613f45565b80601f0160208091040260200160405190810160405280929190818152602001828054611f3d90613f45565b8015611f8a5780601f10611f5f57610100808354040283529160200191611f8a565b820191906000526020600020905b815481529060010190602001808311611f6d57829003601f168201915b505050505090506000611f9b612f96565b9050600081511415611fb1578192505050611ff4565b600082511115611fe6578082604051602001611fce92919061472a565b60405160208183030381529060405292505050611ff4565b611fef84612fad565b925050505b919050565b3373ffffffffffffffffffffffffffffffffffffffff16600c600084815260200190815260200160002060020160009054906101000a900473ffffffffffffffffffffffffffffffffffffffff1673ffffffffffffffffffffffffffffffffffffffff161461209d576040517f08c379a0000000000000000000000000000000000000000000000000000000008152600401612094906147c0565b60405180910390fd5b60011515600c600084815260200190815260200160002060080160019054906101000a900460ff16151514612107576040517f08c379a00000000000000000000000000000000000000000000000000000000081526004016120fe9061463c565b60405180910390fd5b600a54341461214b576040517f08c379a000000000000000000000000000000000000000000000000000000000815260040161214290614852565b60405180910390fd5b6000600c600084815260200190815260200160002060080160006101000a81548160ff02191690831515021790555080600c60008481526020019081526020016000206004018190555033600c600084815260200190815260200160002060010160006101000a81548173ffffffffffffffffffffffffffffffffffffffff021916908373ffffffffffffffffffffffffffffffffffffffff16021790555030600c600084815260200190815260200160002060020160006101000a81548173ffffffffffffffffffffffffffffffffffffffff021916908373ffffffffffffffffffffffffffffffffffffffff1602179055506122496008613054565b61225433308461263d565b5050565b600c6020528060005260406000206000915090508060000154908060010160009054906101000a900473ffffffffffffffffffffffffffffffffffffffff16908060020160009054906101000a900473ffffffffffffffffffffffffffffffffffffffff16908060030160009054906101000a900473ffffffffffffffffffffffffffffffffffffffff16908060040154908060050154908060060154908060070154908060080160009054906101000a900460ff16908060080160019054906101000a900460ff1690508a565b6000600560008473ffffffffffffffffffffffffffffffffffffffff1673ffffffffffffffffffffffffffffffffffffffff16815260200190815260200160002060008373ffffffffffffffffffffffffffffffffffffffff1673ffffffffffffffffffffffffffffffffffffffff16815260200190815260200160002060009054906101000a900460ff16905092915050565b60007f01ffc9a7000000000000000000000000000000000000000000000000000000007bffffffffffffffffffffffffffffffffffffffffffffffffffffffff1916827bffffffffffffffffffffffffffffffffffffffffffffffffffffffff1916149050919050565b60008073ffffffffffffffffffffffffffffffffffffffff166002600084815260200190815260200160002060009054906101000a900473ffffffffffffffffffffffffffffffffffffffff1673ffffffffffffffffffffffffffffffffffffffff1614159050919050565b600033905090565b816004600083815260200190815260200160002060006101000a81548173ffffffffffffffffffffffffffffffffffffffff021916908373ffffffffffffffffffffffffffffffffffffffff160217905550808273ffffffffffffffffffffffffffffffffffffffff1661250b83611424565b73ffffffffffffffffffffffffffffffffffffffff167f8c5be1e5ebec7d5bd14f71427d1e84f3dd0314c0f7b2291e5b200ac8c7c3b92560405160405180910390a45050565b600081600001549050919050565b600061256a82612424565b6125a9576040517f08c379a00000000000000000000000000000000000000000000000000000000081526004016125a0906148e4565b60405180910390fd5b60006125b483611424565b90508073ffffffffffffffffffffffffffffffffffffffff168473ffffffffffffffffffffffffffffffffffffffff16148061262357508373ffffffffffffffffffffffffffffffffffffffff1661260b846107bd565b73ffffffffffffffffffffffffffffffffffffffff16145b8061263457506126338185612326565b5b91505092915050565b8273ffffffffffffffffffffffffffffffffffffffff1661265d82611424565b73ffffffffffffffffffffffffffffffffffffffff16146126b3576040517f08c379a00000000000000000000000000000000000000000000000000000000081526004016126aa90614976565b60405180910390fd5b600073ffffffffffffffffffffffffffffffffffffffff168273ffffffffffffffffffffffffffffffffffffffff161415612723576040517f08c379a000000000000000000000000000000000000000000000000000000000815260040161271a90614a08565b60405180910390fd5b61272e8383836130b0565b612739600082612498565b6001600360008573ffffffffffffffffffffffffffffffffffffffff1673ffffffffffffffffffffffffffffffffffffffff16815260200190815260200160002060008282546127899190614504565b925050819055506001600360008473ffffffffffffffffffffffffffffffffffffffff1673ffffffffffffffffffffffffffffffffffffffff16815260200190815260200160002060008282546127e0919061415c565b92505081905550816002600083815260200190815260200160002060006101000a81548173ffffffffffffffffffffffffffffffffffffffff021916908373ffffffffffffffffffffffffffffffffffffffff160217905550808273ffffffffffffffffffffffffffffffffffffffff168473ffffffffffffffffffffffffffffffffffffffff167fddf252ad1be2c89b69c2b068fc378daa952ba7f163c4a11628f55a4df523b3ef60405160405180910390a461289f8383836130b5565b505050565b6001816000016000828254019250508190555050565b600073ffffffffffffffffffffffffffffffffffffffff168273ffffffffffffffffffffffffffffffffffffffff16141561292a576040517f08c379a000000000000000000000000000000000000000000000000000000000815260040161292190614a74565b60405180910390fd5b61293381612424565b15612973576040517f08c379a000000000000000000000000000000000000000000000000000000000815260040161296a90614ae0565b60405180910390fd5b61297f600083836130b0565b6001600360008473ffffffffffffffffffffffffffffffffffffffff1673ffffffffffffffffffffffffffffffffffffffff16815260200190815260200160002060008282546129cf919061415c565b92505081905550816002600083815260200190815260200160002060006101000a81548173ffffffffffffffffffffffffffffffffffffffff021916908373ffffffffffffffffffffffffffffffffffffffff160217905550808273ffffffffffffffffffffffffffffffffffffffff16600073ffffffffffffffffffffffffffffffffffffffff167fddf252ad1be2c89b69c2b068fc378daa952ba7f163c4a11628f55a4df523b3ef60405160405180910390a4612a90600083836130b5565b5050565b612a9d82612424565b612adc576040517f08c379a0000000000000000000000000000000000000000000000000000000008152600401612ad390614b72565b60405180910390fd5b80600660008481526020019081526020016000209080519060200190612b0392919061346e565b505050565b60008114612b4b576040517f08c379a0000000000000000000000000000000000000000000000000000000008152600401612b4290614c04565b60405180910390fd5b600a543414612b8f576040517f08c379a0000000000000000000000000000000000000000000000000000000008152600401612b8690614852565b60405180910390fd5b6040518061014001604052808381526020013373ffffffffffffffffffffffffffffffffffffffff1681526020013373ffffffffffffffffffffffffffffffffffffffff168152602001600073ffffffffffffffffffffffffffffffffffffffff16815260200182815260200160008152602001600081526020016000815260200160001515815260200160001515815250600c60008481526020019081526020016000206000820151816000015560208201518160010160006101000a81548173ffffffffffffffffffffffffffffffffffffffff021916908373ffffffffffffffffffffffffffffffffffffffff16021790555060408201518160020160006101000a81548173ffffffffffffffffffffffffffffffffffffffff021916908373ffffffffffffffffffffffffffffffffffffffff16021790555060608201518160030160006101000a81548173ffffffffffffffffffffffffffffffffffffffff021916908373ffffffffffffffffffffffffffffffffffffffff1602179055506080820151816004015560a0820151816005015560c0820151816006015560e082015181600701556101008201518160080160006101000a81548160ff0219169083151502179055506101208201518160080160016101000a81548160ff021916908315150217905550905050612d8a60086128a4565b817fb640004f1d14576d0c209e240cad0410e0d8c0c33a09375861fbadae2588a98d3330846000604051612dc19493929190614c24565b60405180910390a25050565b8173ffffffffffffffffffffffffffffffffffffffff168373ffffffffffffffffffffffffffffffffffffffff161415612e3c576040517f08c379a0000000000000000000000000000000000000000000000000000000008152600401612e3390614cb5565b60405180910390fd5b80600560008573ffffffffffffffffffffffffffffffffffffffff1673ffffffffffffffffffffffffffffffffffffffff16815260200190815260200160002060008473ffffffffffffffffffffffffffffffffffffffff1673ffffffffffffffffffffffffffffffffffffffff16815260200190815260200160002060006101000a81548160ff0219169083151502179055508173ffffffffffffffffffffffffffffffffffffffff168373ffffffffffffffffffffffffffffffffffffffff167f17307eab39ab6107e8899845ad3d59bd9653f200f220920489ca2b5937696c3183604051612f2d91906135c5565b60405180910390a3505050565b612f4584848461263d565b612f51848484846130ba565b612f90576040517f08c379a0000000000000000000000000000000000000000000000000000000008152600401612f8790614d47565b60405180910390fd5b50505050565b606060405180602001604052806000815250905090565b6060612fb882612424565b612ff7576040517f08c379a0000000000000000000000000000000000000000000000000000000008152600401612fee90614dd9565b60405180910390fd5b6000613001612f96565b90506000815111613021576040518060200160405280600081525061304c565b8061302b84613251565b60405160200161303c92919061472a565b6040516020818303038152906040525b915050919050565b600081600001549050600081116130a0576040517f08c379a000000000000000000000000000000000000000000000000000000000815260040161309790614e45565b60405180910390fd5b6001810382600001819055505050565b505050565b505050565b60006130db8473ffffffffffffffffffffffffffffffffffffffff166133b2565b15613244578373ffffffffffffffffffffffffffffffffffffffff1663150b7a02613104612490565b8786866040518563ffffffff1660e01b81526004016131269493929190614eba565b602060405180830381600087803b15801561314057600080fd5b505af192505050801561317157506040513d601f19601f8201168201806040525081019061316e9190614f1b565b60015b6131f4573d80600081146131a1576040519150601f19603f3d011682016040523d82523d6000602084013e6131a6565b606091505b506000815114156131ec576040517f08c379a00000000000000000000000000000000000000000000000000000000081526004016131e390614d47565b60405180910390fd5b805181602001fd5b63150b7a0260e01b7bffffffffffffffffffffffffffffffffffffffffffffffffffffffff1916817bffffffffffffffffffffffffffffffffffffffffffffffffffffffff191614915050613249565b600190505b949350505050565b60606000821415613299576040518060400160405280600181526020017f300000000000000000000000000000000000000000000000000000000000000081525090506133ad565b600082905060005b600082146132cb5780806132b4906141e1565b915050600a826132c49190614f77565b91506132a1565b60008167ffffffffffffffff8111156132e7576132e6613ab9565b5b6040519080825280601f01601f1916602001820160405280156133195781602001600182028036833780820191505090505b5090505b600085146133a6576001826133329190614504565b9150600a856133419190614fa8565b603061334d919061415c565b60f81b818381518110613363576133626141b2565b5b60200101907effffffffffffffffffffffffffffffffffffffffffffffffffffffffffffff1916908160001a905350600a8561339f9190614f77565b945061331d565b8093505050505b919050565b6000808273ffffffffffffffffffffffffffffffffffffffff163b119050919050565b60405180610140016040528060008152602001600073ffffffffffffffffffffffffffffffffffffffff168152602001600073ffffffffffffffffffffffffffffffffffffffff168152602001600073ffffffffffffffffffffffffffffffffffffffff168152602001600081526020016000815260200160008152602001600081526020016000151581526020016000151581525090565b82805461347a90613f45565b90600052602060002090601f01602090048101928261349c57600085556134e3565b82601f106134b557805160ff19168380011785556134e3565b828001600101855582156134e3579182015b828111156134e25782518255916020019190600101906134c7565b5b5090506134f091906134f4565b5090565b5b8082111561350d5760008160009055506001016134f5565b5090565b6000604051905090565b600080fd5b600080fd5b60007fffffffff0000000000000000000000000000000000000000000000000000000082169050919050565b61355a81613525565b811461356557600080fd5b50565b60008135905061357781613551565b92915050565b6000602082840312156135935761359261351b565b5b60006135a184828501613568565b91505092915050565b60008115159050919050565b6135bf816135aa565b82525050565b60006020820190506135da60008301846135b6565b92915050565b600081519050919050565b600082825260208201905092915050565b60005b8381101561361a5780820151818401526020810190506135ff565b83811115613629576000848401525b50505050565b6000601f19601f8301169050919050565b600061364b826135e0565b61365581856135eb565b93506136658185602086016135fc565b61366e8161362f565b840191505092915050565b600060208201905081810360008301526136938184613640565b905092915050565b6000819050919050565b6136ae8161369b565b81146136b957600080fd5b50565b6000813590506136cb816136a5565b92915050565b6000602082840312156136e7576136e661351b565b5b60006136f5848285016136bc565b91505092915050565b600073ffffffffffffffffffffffffffffffffffffffff82169050919050565b6000613729826136fe565b9050919050565b6137398161371e565b82525050565b60006020820190506137546000830184613730565b92915050565b6137638161371e565b811461376e57600080fd5b50565b6000813590506137808161375a565b92915050565b6000806040838503121561379d5761379c61351b565b5b60006137ab85828601613771565b92505060206137bc858286016136bc565b9150509250929050565b600081519050919050565b600082825260208201905092915050565b6000819050602082019050919050565b6137fb8161369b565b82525050565b600061380c826136fe565b9050919050565b61381c81613801565b82525050565b61382b8161371e565b82525050565b61383a816135aa565b82525050565b6101408201600082015161385760008501826137f2565b50602082015161386a6020850182613813565b50604082015161387d6040850182613813565b5060608201516138906060850182613822565b5060808201516138a360808501826137f2565b5060a08201516138b660a08501826137f2565b5060c08201516138c960c08501826137f2565b5060e08201516138dc60e08501826137f2565b506101008201516138f1610100850182613831565b50610120820151613906610120850182613831565b50505050565b60006139188383613840565b6101408301905092915050565b6000602082019050919050565b600061393d826137c6565b61394781856137d1565b9350613952836137e2565b8060005b8381101561398357815161396a888261390c565b975061397583613925565b925050600181019050613956565b5085935050505092915050565b600060208201905081810360008301526139aa8184613932565b905092915050565b6139bb8161369b565b82525050565b60006020820190506139d660008301846139b2565b92915050565b6000806000606084860312156139f5576139f461351b565b5b6000613a0386828701613771565b9350506020613a1486828701613771565b9250506040613a25868287016136bc565b9150509250925092565b600060208284031215613a4557613a4461351b565b5b6000613a5384828501613771565b91505092915050565b600080600060608486031215613a7557613a7461351b565b5b6000613a83868287016136bc565b9350506020613a94868287016136bc565b9250506040613aa5868287016136bc565b9150509250925092565b600080fd5b600080fd5b7f4e487b7100000000000000000000000000000000000000000000000000000000600052604160045260246000fd5b613af18261362f565b810181811067ffffffffffffffff82111715613b1057613b0f613ab9565b5b80604052505050565b6000613b23613511565b9050613b2f8282613ae8565b919050565b600067ffffffffffffffff821115613b4f57613b4e613ab9565b5b613b588261362f565b9050602081019050919050565b82818337600083830152505050565b6000613b87613b8284613b34565b613b19565b905082815260208101848484011115613ba357613ba2613ab4565b5b613bae848285613b65565b509392505050565b600082601f830112613bcb57613bca613aaf565b5b8135613bdb848260208601613b74565b91505092915050565b60008060408385031215613bfb57613bfa61351b565b5b600083013567ffffffffffffffff811115613c1957613c18613520565b5b613c2585828601613bb6565b9250506020613c36858286016136bc565b9150509250929050565b613c4981613801565b82525050565b6000602082019050613c646000830184613c40565b92915050565b613c73816135aa565b8114613c7e57600080fd5b50565b600081359050613c9081613c6a565b92915050565b60008060408385031215613cad57613cac61351b565b5b6000613cbb85828601613771565b9250506020613ccc85828601613c81565b9150509250929050565b600067ffffffffffffffff821115613cf157613cf0613ab9565b5b613cfa8261362f565b9050602081019050919050565b6000613d1a613d1584613cd6565b613b19565b905082815260208101848484011115613d3657613d35613ab4565b5b613d41848285613b65565b509392505050565b600082601f830112613d5e57613d5d613aaf565b5b8135613d6e848260208601613d07565b91505092915050565b60008060008060808587031215613d9157613d9061351b565b5b6000613d9f87828801613771565b9450506020613db087828801613771565b9350506040613dc1878288016136bc565b925050606085013567ffffffffffffffff811115613de257613de1613520565b5b613dee87828801613d49565b91505092959194509250565b60008060408385031215613e1157613e1061351b565b5b6000613e1f858286016136bc565b9250506020613e30858286016136bc565b9150509250929050565b600061014082019050613e50600083018d6139b2565b613e5d602083018c613c40565b613e6a604083018b613c40565b613e77606083018a613730565b613e8460808301896139b2565b613e9160a08301886139b2565b613e9e60c08301876139b2565b613eab60e08301866139b2565b613eb96101008301856135b6565b613ec76101208301846135b6565b9b9a5050505050505050505050565b60008060408385031215613eed57613eec61351b565b5b6000613efb85828601613771565b9250506020613f0c85828601613771565b9150509250929050565b7f4e487b7100000000000000000000000000000000000000000000000000000000600052602260045260246000fd5b60006002820490506001821680613f5d57607f821691505b60208210811415613f7157613f70613f16565b5b50919050565b7f4552433732313a20617070726f76656420717565727920666f72206e6f6e657860008201527f697374656e7420746f6b656e0000000000000000000000000000000000000000602082015250565b6000613fd3602c836135eb565b9150613fde82613f77565b604082019050919050565b6000602082019050818103600083015261400281613fc6565b9050919050565b7f4552433732313a20617070726f76616c20746f2063757272656e74206f776e6560008201527f7200000000000000000000000000000000000000000000000000000000000000602082015250565b60006140656021836135eb565b915061407082614009565b604082019050919050565b6000602082019050818103600083015261409481614058565b9050919050565b7f4552433732313a20617070726f76652063616c6c6572206973206e6f74206f7760008201527f6e6572206e6f7220617070726f76656420666f7220616c6c0000000000000000602082015250565b60006140f76038836135eb565b91506141028261409b565b604082019050919050565b60006020820190508181036000830152614126816140ea565b9050919050565b7f4e487b7100000000000000000000000000000000000000000000000000000000600052601160045260246000fd5b60006141678261369b565b91506141728361369b565b9250827fffffffffffffffffffffffffffffffffffffffffffffffffffffffffffffffff038211156141a7576141a661412d565b5b828201905092915050565b7f4e487b7100000000000000000000000000000000000000000000000000000000600052603260045260246000fd5b60006141ec8261369b565b91507fffffffffffffffffffffffffffffffffffffffffffffffffffffffffffffffff82141561421f5761421e61412d565b5b600182019050919050565b7f4552433732313a207472616e736665722063616c6c6572206973206e6f74206f60008201527f776e6572206e6f7220617070726f766564000000000000000000000000000000602082015250565b60006142866031836135eb565b91506142918261422a565b604082019050919050565b600060208201905081810360008301526142b581614279565b9050919050565b7f4552433732313a206f776e657220717565727920666f72206e6f6e657869737460008201527f656e7420746f6b656e0000000000000000000000000000000000000000000000602082015250565b60006143186029836135eb565b9150614323826142bc565b604082019050919050565b600060208201905081810360008301526143478161430b565b9050919050565b7f4f6e6c79205665726966696564204163636f756e74732063616e20626520757360008201527f656420746f205665726966792041737365740000000000000000000000000000602082015250565b60006143aa6032836135eb565b91506143b58261434e565b604082019050919050565b600060208201905081810360008301526143d98161439d565b9050919050565b7f4552433732313a2062616c616e636520717565727920666f7220746865207a6560008201527f726f206164647265737300000000000000000000000000000000000000000000602082015250565b600061443c602a836135eb565b9150614447826143e0565b604082019050919050565b6000602082019050818103600083015261446b8161442f565b9050919050565b7f4f6e6c79206d61726b6574706c616365206f776e65722063616e20757064617460008201527f65206c697374696e672070726963652e00000000000000000000000000000000602082015250565b60006144ce6030836135eb565b91506144d982614472565b604082019050919050565b600060208201905081810360008301526144fd816144c1565b9050919050565b600061450f8261369b565b915061451a8361369b565b92508282101561452d5761452c61412d565b5b828203905092915050565b7f506c65617365207375626d6974207468652061736b696e67207072696365206960008201527f6e206f7264657220746f20636f6d706c65746520746865207075726368617365602082015250565b60006145946040836135eb565b915061459f82614538565b604082019050919050565b600060208201905081810360008301526145c381614587565b9050919050565b7f4f6e6c792056657269666965642050726f706572746965732063616e2062652060008201527f536f6c6400000000000000000000000000000000000000000000000000000000602082015250565b60006146266024836135eb565b9150614631826145ca565b604082019050919050565b6000602082019050818103600083015261465581614619565b9050919050565b7f45524337323155524953746f726167653a2055524920717565727920666f722060008201527f6e6f6e6578697374656e7420746f6b656e000000000000000000000000000000602082015250565b60006146b86031836135eb565b91506146c38261465c565b604082019050919050565b600060208201905081810360008301526146e7816146ab565b9050919050565b600081905092915050565b6000614704826135e0565b61470e81856146ee565b935061471e8185602086016135fc565b80840191505092915050565b600061473682856146f9565b915061474282846146f9565b91508190509392505050565b7f4f6e6c79206974656d206f776e65722063616e20706572666f726d207468697360008201527f206f7065726174696f6e00000000000000000000000000000000000000000000602082015250565b60006147aa602a836135eb565b91506147b58261474e565b604082019050919050565b600060208201905081810360008301526147d98161479d565b9050919050565b7f5072696365206d75737420626520657175616c20746f206c697374696e67207060008201527f7269636500000000000000000000000000000000000000000000000000000000602082015250565b600061483c6024836135eb565b9150614847826147e0565b604082019050919050565b6000602082019050818103600083015261486b8161482f565b9050919050565b7f4552433732313a206f70657261746f7220717565727920666f72206e6f6e657860008201527f697374656e7420746f6b656e0000000000000000000000000000000000000000602082015250565b60006148ce602c836135eb565b91506148d982614872565b604082019050919050565b600060208201905081810360008301526148fd816148c1565b9050919050565b7f4552433732313a207472616e736665722066726f6d20696e636f72726563742060008201527f6f776e6572000000000000000000000000000000000000000000000000000000602082015250565b60006149606025836135eb565b915061496b82614904565b604082019050919050565b6000602082019050818103600083015261498f81614953565b9050919050565b7f4552433732313a207472616e7366657220746f20746865207a65726f2061646460008201527f7265737300000000000000000000000000000000000000000000000000000000602082015250565b60006149f26024836135eb565b91506149fd82614996565b604082019050919050565b60006020820190508181036000830152614a21816149e5565b9050919050565b7f4552433732313a206d696e7420746f20746865207a65726f2061646472657373600082015250565b6000614a5e6020836135eb565b9150614a6982614a28565b602082019050919050565b60006020820190508181036000830152614a8d81614a51565b9050919050565b7f4552433732313a20746f6b656e20616c7265616479206d696e74656400000000600082015250565b6000614aca601c836135eb565b9150614ad582614a94565b602082019050919050565b60006020820190508181036000830152614af981614abd565b9050919050565b7f45524337323155524953746f726167653a2055524920736574206f66206e6f6e60008201527f6578697374656e7420746f6b656e000000000000000000000000000000000000602082015250565b6000614b5c602e836135eb565b9150614b6782614b00565b604082019050919050565b60006020820190508181036000830152614b8b81614b4f565b9050919050565b7f5072696365206d7573742062652073657420616674657220766572696679696e60008201527f67207468652070726f7065727479000000000000000000000000000000000000602082015250565b6000614bee602e836135eb565b9150614bf982614b92565b604082019050919050565b60006020820190508181036000830152614c1d81614be1565b9050919050565b6000608082019050614c396000830187613730565b614c466020830186613730565b614c5360408301856139b2565b614c6060608301846135b6565b95945050505050565b7f4552433732313a20617070726f766520746f2063616c6c657200000000000000600082015250565b6000614c9f6019836135eb565b9150614caa82614c69565b602082019050919050565b60006020820190508181036000830152614cce81614c92565b9050919050565b7f4552433732313a207472616e7366657220746f206e6f6e20455243373231526560008201527f63656976657220696d706c656d656e7465720000000000000000000000000000602082015250565b6000614d316032836135eb565b9150614d3c82614cd5565b604082019050919050565b60006020820190508181036000830152614d6081614d24565b9050919050565b7f4552433732314d657461646174613a2055524920717565727920666f72206e6f60008201527f6e6578697374656e7420746f6b656e0000000000000000000000000000000000602082015250565b6000614dc3602f836135eb565b9150614dce82614d67565b604082019050919050565b60006020820190508181036000830152614df281614db6565b9050919050565b7f436f756e7465723a2064656372656d656e74206f766572666c6f770000000000600082015250565b6000614e2f601b836135eb565b9150614e3a82614df9565b602082019050919050565b60006020820190508181036000830152614e5e81614e22565b9050919050565b600081519050919050565b600082825260208201905092915050565b6000614e8c82614e65565b614e968185614e70565b9350614ea68185602086016135fc565b614eaf8161362f565b840191505092915050565b6000608082019050614ecf6000830187613730565b614edc6020830186613730565b614ee960408301856139b2565b8181036060830152614efb8184614e81565b905095945050505050565b600081519050614f1581613551565b92915050565b600060208284031215614f3157614f3061351b565b5b6000614f3f84828501614f06565b91505092915050565b7f4e487b7100000000000000000000000000000000000000000000000000000000600052601260045260246000fd5b6000614f828261369b565b9150614f8d8361369b565b925082614f9d57614f9c614f48565b5b828204905092915050565b6000614fb38261369b565b9150614fbe8361369b565b925082614fce57614fcd614f48565b5b82820690509291505056fea264697066735822122044de2d684d4410b24ef6b38ca5372ad143af7180b9f47ac2d488543f5fd7b77164736f6c63430008090033",
  "immutableReferences": {},
  "source": "// SPDX-License-Identifier: MIT\npragma solidity ^0.8.4;\n\nimport \"@openzeppelin/contracts/utils/Counters.sol\";\nimport \"@openzeppelin/contracts/token/ERC721/extensions/ERC721URIStorage.sol\";\nimport \"@openzeppelin/contracts/token/ERC721/ERC721.sol\";\n\ncontract NFTMarketplace is ERC721URIStorage {\n    using Counters for Counters.Counter;\n    Counters.Counter private _tokenIds;\n    Counters.Counter private _itemsSold;\n    Counters.Counter private _verified;\n\n    uint256 listingPrice = 0.025 ether;\n    address payable public owner;\n\n    mapping(uint256 => MarketItem) public idToMarketItem;\n    mapping(address => bool) public isVerifier;\n\n    struct MarketItem {\n        uint256 tokenId;\n        address payable seller;\n        address payable owner;\n        address verifier;\n        uint256 price;\n        uint256 valuation;\n        uint256 pricePSF;\n        uint256 valuationDate;\n        bool sold;\n        bool verified;\n    }\n\n    event MarketItemCreated(\n        uint256 indexed tokenId,\n        address seller,\n        address owner,\n        uint256 price,\n        bool sold\n    );\n\n    event TokenVerified(uint256 indexed tokenId, address verifier);\n\n    constructor() ERC721(\"Real Estate Token\", \"RST\") {\n        owner = payable(msg.sender);\n        isVerifier[msg.sender] = true;\n    }\n\n    /* Updates the listing price of the contract */\n    function updateListingPrice(uint256 _listingPrice) public payable {\n        require(\n            owner == msg.sender,\n            \"Only marketplace owner can update listing price.\"\n        );\n        listingPrice = _listingPrice;\n    }\n\n    /* Returns the listing price of the contract */\n    function getListingPrice() public view returns (uint256) {\n        return listingPrice;\n    }\n\n    /* Mints a token and lists it in the marketplace */\n    function createToken(string memory tokenURI, uint256 price)\n        public\n        payable\n        returns (uint256)\n    {\n        _tokenIds.increment();\n        uint256 newTokenId = _tokenIds.current();\n\n        _mint(msg.sender, newTokenId);\n        _setTokenURI(newTokenId, tokenURI);\n        createMarketItem(newTokenId, price);\n        return newTokenId;\n    }\n\n    function verifyToken(uint256 _tokenId, uint256 _valuation, uint256 _pricePSF) public {\n        require(\n            isVerifier[msg.sender] == true,\n            \"Only Verified Accounts can be used to Verify Asset\"\n        );\n\n        _verified.increment();\n\n        idToMarketItem[_tokenId].valuation = _valuation;\n        idToMarketItem[_tokenId].valuationDate = block.timestamp;\n        idToMarketItem[_tokenId].verified = true;\n        idToMarketItem[_tokenId].pricePSF = _pricePSF;\n        idToMarketItem[_tokenId].verifier = msg.sender;\n\n        emit TokenVerified(_tokenId, msg.sender);\n    }\n\n    function createMarketItem(uint256 tokenId, uint256 price) private {\n        require(price == 0, \"Price must be set after verifying the property\");\n        require(\n            msg.value == listingPrice,\n            \"Price must be equal to listing price\"\n        );\n\n        idToMarketItem[tokenId] = MarketItem(\n            tokenId,\n            payable(msg.sender),\n            payable(msg.sender),\n            address(0),\n            price,\n            0,\n            0,\n            0,\n            false,\n            false\n        );\n\n        // _transfer(msg.sender, address(this), tokenId);\n        _itemsSold.increment();\n        emit MarketItemCreated(\n            tokenId,\n            msg.sender,\n            address(this),\n            price,\n            false\n        );\n    }\n\n    /* allows someone to resell a token they have purchased */\n    function resellToken(uint256 tokenId, uint256 price) public payable {\n        require(\n            idToMarketItem[tokenId].owner == msg.sender,\n            \"Only item owner can perform this operation\"\n        );\n        require(\n            idToMarketItem[tokenId].verified == true,\n            \"Only Verified Properties can be Sold\"\n        );\n        require(\n            msg.value == listingPrice,\n            \"Price must be equal to listing price\"\n        );\n        idToMarketItem[tokenId].sold = false;\n        idToMarketItem[tokenId].price = price;\n        idToMarketItem[tokenId].seller = payable(msg.sender);\n        idToMarketItem[tokenId].owner = payable(address(this));\n        _itemsSold.decrement();\n\n        _transfer(msg.sender, address(this), tokenId);\n    }\n\n    /* Creates the sale of a marketplace item */\n    /* Transfers ownership of the item, as well as funds between parties */\n    function createMarketSale(uint256 tokenId) public payable {\n        uint256 price = idToMarketItem[tokenId].price;\n        address seller = idToMarketItem[tokenId].seller;\n        require(\n            msg.value == price,\n            \"Please submit the asking price in order to complete the purchase\"\n        );\n        require(\n            idToMarketItem[tokenId].verified == true,\n            \"Only Verified Properties can be Sold\"\n        );\n        idToMarketItem[tokenId].owner = payable(msg.sender);\n        idToMarketItem[tokenId].sold = true;\n        idToMarketItem[tokenId].seller = payable(address(0));\n        _itemsSold.increment();\n        _transfer(address(this), msg.sender, tokenId);\n        payable(owner).transfer(listingPrice);\n        payable(seller).transfer(msg.value);\n    }\n\n    /* Returns all unsold market items */\n    function fetchMarketItems() public view returns (MarketItem[] memory) {\n        uint256 itemCount = _tokenIds.current();\n        uint256 verified = _verified.current();\n        uint256 currentIndex = 0;\n\n        MarketItem[] memory items = new MarketItem[](verified);\n        for (uint256 i = 0; i < itemCount; i++) {\n            if (\n                idToMarketItem[i + 1].owner == address(this) &&\n                idToMarketItem[i + 1].verified == true\n            ) {\n                uint256 currentId = i + 1;\n                MarketItem storage currentItem = idToMarketItem[currentId];\n                items[currentIndex] = currentItem;\n                currentIndex += 1;\n            }\n        }\n        return items;\n    }\n\n    /* Returns only items that a user has purchased */\n    function fetchMyNFTs() public view returns (MarketItem[] memory) {\n        uint256 totalItemCount = _tokenIds.current();\n        uint256 itemCount = 0;\n        uint256 currentIndex = 0;\n\n        for (uint256 i = 0; i < totalItemCount; i++) {\n            if (idToMarketItem[i + 1].owner == msg.sender) {\n                itemCount += 1;\n            }\n        }\n\n        MarketItem[] memory items = new MarketItem[](itemCount);\n        for (uint256 i = 0; i < totalItemCount; i++) {\n            if (idToMarketItem[i + 1].owner == msg.sender) {\n                uint256 currentId = i + 1;\n                MarketItem storage currentItem = idToMarketItem[currentId];\n                items[currentIndex] = currentItem;\n                currentIndex += 1;\n            }\n        }\n        return items;\n    }\n\n    /* Returns only items a user has listed */\n    function fetchItemsListed() public view returns (MarketItem[] memory) {\n        uint256 totalItemCount = _tokenIds.current();\n        uint256 itemCount = 0;\n        uint256 currentIndex = 0;\n\n        for (uint256 i = 0; i < totalItemCount; i++) {\n            if (idToMarketItem[i + 1].seller == msg.sender) {\n                itemCount += 1;\n            }\n        }\n\n        MarketItem[] memory items = new MarketItem[](itemCount);\n        for (uint256 i = 0; i < totalItemCount; i++) {\n            if (idToMarketItem[i + 1].seller == msg.sender) {\n                uint256 currentId = i + 1;\n                MarketItem storage currentItem = idToMarketItem[currentId];\n                items[currentIndex] = currentItem;\n                currentIndex += 1;\n            }\n        }\n        return items;\n    }\n\n    function fetchUnverifiedTokens() public view returns(MarketItem[] memory){\n        uint256 itemCount = _tokenIds.current();\n        uint256 verified = _verified.current();\n        uint256 currentIndex = 0;\n\n        MarketItem[] memory items = new MarketItem[](itemCount - verified);\n        for (uint256 i = 0; i < itemCount; i++) {\n            if (\n                idToMarketItem[i + 1].verified == false\n            ) {\n                uint256 currentId = i + 1;\n                MarketItem storage currentItem = idToMarketItem[currentId];\n                items[currentIndex] = currentItem;\n                currentIndex += 1;\n            }\n        }\n        return items;\n    }\n}\n",
  "sourcePath": "/home/samarth/Blockchain/BE Project/Group/cryptoacres/contracts/NFT.sol",
  "compiler": {
    "name": "solc",
    "version": "0.8.9+commit.e5eed63a.Emscripten.clang"
  },
  "schemaVersion": "3.4.3",
  "updatedAt": "2022-04-18T21:02:49.440Z",
  "networkType": "ethereum",
  "devdoc": {
    "kind": "dev",
    "methods": {
      "approve(address,uint256)": {
        "details": "See {IERC721-approve}."
      },
      "balanceOf(address)": {
        "details": "See {IERC721-balanceOf}."
      },
      "getApproved(uint256)": {
        "details": "See {IERC721-getApproved}."
      },
      "isApprovedForAll(address,address)": {
        "details": "See {IERC721-isApprovedForAll}."
      },
      "name()": {
        "details": "See {IERC721Metadata-name}."
      },
      "ownerOf(uint256)": {
        "details": "See {IERC721-ownerOf}."
      },
      "safeTransferFrom(address,address,uint256)": {
        "details": "See {IERC721-safeTransferFrom}."
      },
      "safeTransferFrom(address,address,uint256,bytes)": {
        "details": "See {IERC721-safeTransferFrom}."
      },
      "setApprovalForAll(address,bool)": {
        "details": "See {IERC721-setApprovalForAll}."
      },
      "supportsInterface(bytes4)": {
        "details": "See {IERC165-supportsInterface}."
      },
      "symbol()": {
        "details": "See {IERC721Metadata-symbol}."
      },
      "tokenURI(uint256)": {
        "details": "See {IERC721Metadata-tokenURI}."
      },
      "transferFrom(address,address,uint256)": {
        "details": "See {IERC721-transferFrom}."
      }
    },
    "version": 1
  },
  "userdoc": {
    "kind": "user",
    "methods": {},
    "version": 1
  }
}