{
  "contractName": "NFTMarketplace",
  "abi": [
    {
      "inputs": [],
      "stateMutability": "nonpayable",
      "type": "constructor"
    },
    {
      "anonymous": false,
      "inputs": [
        {
          "indexed": true,
          "internalType": "address",
          "name": "owner",
          "type": "address"
        },
        {
          "indexed": true,
          "internalType": "address",
          "name": "approved",
          "type": "address"
        },
        {
          "indexed": true,
          "internalType": "uint256",
          "name": "tokenId",
          "type": "uint256"
        }
      ],
      "name": "Approval",
      "type": "event"
    },
    {
      "anonymous": false,
      "inputs": [
        {
          "indexed": true,
          "internalType": "address",
          "name": "owner",
          "type": "address"
        },
        {
          "indexed": true,
          "internalType": "address",
          "name": "operator",
          "type": "address"
        },
        {
          "indexed": false,
          "internalType": "bool",
          "name": "approved",
          "type": "bool"
        }
      ],
      "name": "ApprovalForAll",
      "type": "event"
    },
    {
      "anonymous": false,
      "inputs": [
        {
          "indexed": true,
          "internalType": "uint256",
          "name": "tokenId",
          "type": "uint256"
        },
        {
          "indexed": false,
          "internalType": "address",
          "name": "seller",
          "type": "address"
        },
        {
          "indexed": false,
          "internalType": "address",
          "name": "owner",
          "type": "address"
        },
        {
          "indexed": false,
          "internalType": "uint256",
          "name": "price",
          "type": "uint256"
        },
        {
          "indexed": false,
          "internalType": "bool",
          "name": "sold",
          "type": "bool"
        }
      ],
      "name": "MarketItemCreated",
      "type": "event"
    },
    {
      "anonymous": false,
      "inputs": [
        {
          "indexed": true,
          "internalType": "uint256",
          "name": "tokenId",
          "type": "uint256"
        },
        {
          "indexed": false,
          "internalType": "address",
          "name": "verifier",
          "type": "address"
        }
      ],
      "name": "TokenVerified",
      "type": "event"
    },
    {
      "anonymous": false,
      "inputs": [
        {
          "indexed": true,
          "internalType": "address",
          "name": "from",
          "type": "address"
        },
        {
          "indexed": true,
          "internalType": "address",
          "name": "to",
          "type": "address"
        },
        {
          "indexed": true,
          "internalType": "uint256",
          "name": "tokenId",
          "type": "uint256"
        }
      ],
      "name": "Transfer",
      "type": "event"
    },
    {
      "inputs": [
        {
          "internalType": "address",
          "name": "to",
          "type": "address"
        },
        {
          "internalType": "uint256",
          "name": "tokenId",
          "type": "uint256"
        }
      ],
      "name": "approve",
      "outputs": [],
      "stateMutability": "nonpayable",
      "type": "function"
    },
    {
      "inputs": [
        {
          "internalType": "address",
          "name": "owner",
          "type": "address"
        }
      ],
      "name": "balanceOf",
      "outputs": [
        {
          "internalType": "uint256",
          "name": "",
          "type": "uint256"
        }
      ],
      "stateMutability": "view",
      "type": "function",
      "constant": true
    },
    {
      "inputs": [
        {
          "internalType": "uint256",
          "name": "tokenId",
          "type": "uint256"
        }
      ],
      "name": "getApproved",
      "outputs": [
        {
          "internalType": "address",
          "name": "",
          "type": "address"
        }
      ],
      "stateMutability": "view",
      "type": "function",
      "constant": true
    },
    {
      "inputs": [
        {
          "internalType": "uint256",
          "name": "",
          "type": "uint256"
        }
      ],
      "name": "idToMarketItem",
      "outputs": [
        {
          "internalType": "uint256",
          "name": "tokenId",
          "type": "uint256"
        },
        {
          "internalType": "address payable",
          "name": "seller",
          "type": "address"
        },
        {
          "internalType": "address payable",
          "name": "owner",
          "type": "address"
        },
        {
          "internalType": "address",
          "name": "verifier",
          "type": "address"
        },
        {
          "internalType": "uint256",
          "name": "price",
          "type": "uint256"
        },
        {
          "internalType": "uint256",
          "name": "valuation",
          "type": "uint256"
        },
        {
          "internalType": "uint256",
          "name": "valuationDate",
          "type": "uint256"
        },
        {
          "internalType": "bool",
          "name": "sold",
          "type": "bool"
        },
        {
          "internalType": "bool",
          "name": "verified",
          "type": "bool"
        }
      ],
      "stateMutability": "view",
      "type": "function",
      "constant": true
    },
    {
      "inputs": [
        {
          "internalType": "address",
          "name": "owner",
          "type": "address"
        },
        {
          "internalType": "address",
          "name": "operator",
          "type": "address"
        }
      ],
      "name": "isApprovedForAll",
      "outputs": [
        {
          "internalType": "bool",
          "name": "",
          "type": "bool"
        }
      ],
      "stateMutability": "view",
      "type": "function",
      "constant": true
    },
    {
      "inputs": [
        {
          "internalType": "address",
          "name": "",
          "type": "address"
        }
      ],
      "name": "isVerifier",
      "outputs": [
        {
          "internalType": "bool",
          "name": "",
          "type": "bool"
        }
      ],
      "stateMutability": "view",
      "type": "function",
      "constant": true
    },
    {
      "inputs": [],
      "name": "name",
      "outputs": [
        {
          "internalType": "string",
          "name": "",
          "type": "string"
        }
      ],
      "stateMutability": "view",
      "type": "function",
      "constant": true
    },
    {
      "inputs": [],
      "name": "owner",
      "outputs": [
        {
          "internalType": "address payable",
          "name": "",
          "type": "address"
        }
      ],
      "stateMutability": "view",
      "type": "function",
      "constant": true
    },
    {
      "inputs": [
        {
          "internalType": "uint256",
          "name": "tokenId",
          "type": "uint256"
        }
      ],
      "name": "ownerOf",
      "outputs": [
        {
          "internalType": "address",
          "name": "",
          "type": "address"
        }
      ],
      "stateMutability": "view",
      "type": "function",
      "constant": true
    },
    {
      "inputs": [
        {
          "internalType": "address",
          "name": "from",
          "type": "address"
        },
        {
          "internalType": "address",
          "name": "to",
          "type": "address"
        },
        {
          "internalType": "uint256",
          "name": "tokenId",
          "type": "uint256"
        }
      ],
      "name": "safeTransferFrom",
      "outputs": [],
      "stateMutability": "nonpayable",
      "type": "function"
    },
    {
      "inputs": [
        {
          "internalType": "address",
          "name": "from",
          "type": "address"
        },
        {
          "internalType": "address",
          "name": "to",
          "type": "address"
        },
        {
          "internalType": "uint256",
          "name": "tokenId",
          "type": "uint256"
        },
        {
          "internalType": "bytes",
          "name": "_data",
          "type": "bytes"
        }
      ],
      "name": "safeTransferFrom",
      "outputs": [],
      "stateMutability": "nonpayable",
      "type": "function"
    },
    {
      "inputs": [
        {
          "internalType": "address",
          "name": "operator",
          "type": "address"
        },
        {
          "internalType": "bool",
          "name": "approved",
          "type": "bool"
        }
      ],
      "name": "setApprovalForAll",
      "outputs": [],
      "stateMutability": "nonpayable",
      "type": "function"
    },
    {
      "inputs": [
        {
          "internalType": "bytes4",
          "name": "interfaceId",
          "type": "bytes4"
        }
      ],
      "name": "supportsInterface",
      "outputs": [
        {
          "internalType": "bool",
          "name": "",
          "type": "bool"
        }
      ],
      "stateMutability": "view",
      "type": "function",
      "constant": true
    },
    {
      "inputs": [],
      "name": "symbol",
      "outputs": [
        {
          "internalType": "string",
          "name": "",
          "type": "string"
        }
      ],
      "stateMutability": "view",
      "type": "function",
      "constant": true
    },
    {
      "inputs": [
        {
          "internalType": "uint256",
          "name": "tokenId",
          "type": "uint256"
        }
      ],
      "name": "tokenURI",
      "outputs": [
        {
          "internalType": "string",
          "name": "",
          "type": "string"
        }
      ],
      "stateMutability": "view",
      "type": "function",
      "constant": true
    },
    {
      "inputs": [
        {
          "internalType": "address",
          "name": "from",
          "type": "address"
        },
        {
          "internalType": "address",
          "name": "to",
          "type": "address"
        },
        {
          "internalType": "uint256",
          "name": "tokenId",
          "type": "uint256"
        }
      ],
      "name": "transferFrom",
      "outputs": [],
      "stateMutability": "nonpayable",
      "type": "function"
    },
    {
      "inputs": [
        {
          "internalType": "uint256",
          "name": "_listingPrice",
          "type": "uint256"
        }
      ],
      "name": "updateListingPrice",
      "outputs": [],
      "stateMutability": "payable",
      "type": "function",
      "payable": true
    },
    {
      "inputs": [],
      "name": "getListingPrice",
      "outputs": [
        {
          "internalType": "uint256",
          "name": "",
          "type": "uint256"
        }
      ],
      "stateMutability": "view",
      "type": "function",
      "constant": true
    },
    {
      "inputs": [
        {
          "internalType": "string",
          "name": "tokenURI",
          "type": "string"
        },
        {
          "internalType": "uint256",
          "name": "price",
          "type": "uint256"
        }
      ],
      "name": "createToken",
      "outputs": [
        {
          "internalType": "uint256",
          "name": "",
          "type": "uint256"
        }
      ],
      "stateMutability": "payable",
      "type": "function",
      "payable": true
    },
    {
      "inputs": [
        {
          "internalType": "uint256",
          "name": "_tokenId",
          "type": "uint256"
        },
        {
          "internalType": "uint256",
          "name": "_valuation",
          "type": "uint256"
        }
      ],
      "name": "verifyToken",
      "outputs": [],
      "stateMutability": "nonpayable",
      "type": "function"
    },
    {
      "inputs": [
        {
          "internalType": "uint256",
          "name": "tokenId",
          "type": "uint256"
        },
        {
          "internalType": "uint256",
          "name": "price",
          "type": "uint256"
        }
      ],
      "name": "resellToken",
      "outputs": [],
      "stateMutability": "payable",
      "type": "function",
      "payable": true
    },
    {
      "inputs": [
        {
          "internalType": "uint256",
          "name": "tokenId",
          "type": "uint256"
        }
      ],
      "name": "createMarketSale",
      "outputs": [],
      "stateMutability": "payable",
      "type": "function",
      "payable": true
    },
    {
      "inputs": [],
      "name": "fetchMarketItems",
      "outputs": [
        {
          "components": [
            {
              "internalType": "uint256",
              "name": "tokenId",
              "type": "uint256"
            },
            {
              "internalType": "address payable",
              "name": "seller",
              "type": "address"
            },
            {
              "internalType": "address payable",
              "name": "owner",
              "type": "address"
            },
            {
              "internalType": "address",
              "name": "verifier",
              "type": "address"
            },
            {
              "internalType": "uint256",
              "name": "price",
              "type": "uint256"
            },
            {
              "internalType": "uint256",
              "name": "valuation",
              "type": "uint256"
            },
            {
              "internalType": "uint256",
              "name": "valuationDate",
              "type": "uint256"
            },
            {
              "internalType": "bool",
              "name": "sold",
              "type": "bool"
            },
            {
              "internalType": "bool",
              "name": "verified",
              "type": "bool"
            }
          ],
          "internalType": "struct NFTMarketplace.MarketItem[]",
          "name": "",
          "type": "tuple[]"
        }
      ],
      "stateMutability": "view",
      "type": "function",
      "constant": true
    },
    {
      "inputs": [],
      "name": "fetchMyNFTs",
      "outputs": [
        {
          "components": [
            {
              "internalType": "uint256",
              "name": "tokenId",
              "type": "uint256"
            },
            {
              "internalType": "address payable",
              "name": "seller",
              "type": "address"
            },
            {
              "internalType": "address payable",
              "name": "owner",
              "type": "address"
            },
            {
              "internalType": "address",
              "name": "verifier",
              "type": "address"
            },
            {
              "internalType": "uint256",
              "name": "price",
              "type": "uint256"
            },
            {
              "internalType": "uint256",
              "name": "valuation",
              "type": "uint256"
            },
            {
              "internalType": "uint256",
              "name": "valuationDate",
              "type": "uint256"
            },
            {
              "internalType": "bool",
              "name": "sold",
              "type": "bool"
            },
            {
              "internalType": "bool",
              "name": "verified",
              "type": "bool"
            }
          ],
          "internalType": "struct NFTMarketplace.MarketItem[]",
          "name": "",
          "type": "tuple[]"
        }
      ],
      "stateMutability": "view",
      "type": "function",
      "constant": true
    },
    {
      "inputs": [],
      "name": "fetchItemsListed",
      "outputs": [
        {
          "components": [
            {
              "internalType": "uint256",
              "name": "tokenId",
              "type": "uint256"
            },
            {
              "internalType": "address payable",
              "name": "seller",
              "type": "address"
            },
            {
              "internalType": "address payable",
              "name": "owner",
              "type": "address"
            },
            {
              "internalType": "address",
              "name": "verifier",
              "type": "address"
            },
            {
              "internalType": "uint256",
              "name": "price",
              "type": "uint256"
            },
            {
              "internalType": "uint256",
              "name": "valuation",
              "type": "uint256"
            },
            {
              "internalType": "uint256",
              "name": "valuationDate",
              "type": "uint256"
            },
            {
              "internalType": "bool",
              "name": "sold",
              "type": "bool"
            },
            {
              "internalType": "bool",
              "name": "verified",
              "type": "bool"
            }
          ],
          "internalType": "struct NFTMarketplace.MarketItem[]",
          "name": "",
          "type": "tuple[]"
        }
      ],
      "stateMutability": "view",
      "type": "function",
      "constant": true
    },
    {
      "inputs": [],
      "name": "fetchUnverifiedTokens",
      "outputs": [
        {
          "components": [
            {
              "internalType": "uint256",
              "name": "tokenId",
              "type": "uint256"
            },
            {
              "internalType": "address payable",
              "name": "seller",
              "type": "address"
            },
            {
              "internalType": "address payable",
              "name": "owner",
              "type": "address"
            },
            {
              "internalType": "address",
              "name": "verifier",
              "type": "address"
            },
            {
              "internalType": "uint256",
              "name": "price",
              "type": "uint256"
            },
            {
              "internalType": "uint256",
              "name": "valuation",
              "type": "uint256"
            },
            {
              "internalType": "uint256",
              "name": "valuationDate",
              "type": "uint256"
            },
            {
              "internalType": "bool",
              "name": "sold",
              "type": "bool"
            },
            {
              "internalType": "bool",
              "name": "verified",
              "type": "bool"
            }
          ],
          "internalType": "struct NFTMarketplace.MarketItem[]",
          "name": "",
          "type": "tuple[]"
        }
      ],
      "stateMutability": "view",
      "type": "function",
      "constant": true
    }
  ],
  "bytecode": "0x6080604052670de0b6b3a7640000600a553480156200001d57600080fd5b506040518060400160405280601181526020017f5265616c2045737461746520546f6b656e0000000000000000000000000000008152506040518060400160405280600381526020017f52535400000000000000000000000000000000000000000000000000000000008152508160009080519060200190620000a29291906200015d565b508060019080519060200190620000bb9291906200015d565b50505033600b60006101000a81548173ffffffffffffffffffffffffffffffffffffffff021916908373ffffffffffffffffffffffffffffffffffffffff1602179055506001600d60003373ffffffffffffffffffffffffffffffffffffffff1673ffffffffffffffffffffffffffffffffffffffff16815260200190815260200160002060006101000a81548160ff02191690831515021790555062000272565b8280546200016b906200023c565b90600052602060002090601f0160209004810192826200018f5760008555620001db565b82601f10620001aa57805160ff1916838001178555620001db565b82800160010185558215620001db579182015b82811115620001da578251825591602001919060010190620001bd565b5b509050620001ea9190620001ee565b5090565b5b8082111562000209576000816000905550600101620001ef565b5090565b7f4e487b7100000000000000000000000000000000000000000000000000000000600052602260045260246000fd5b600060028204905060018216806200025557607f821691505b602082108114156200026c576200026b6200020d565b5b50919050565b614f0e80620002826000396000f3fe6080604052600436106101815760003560e01c806370a08231116100d1578063b025c2b61161008a578063c87b56dd11610064578063c87b56dd1461056d578063e219fc75146105aa578063e61a70c0146105c6578063e985e9c51461060b57610181565b8063b025c2b6146104fd578063b88d4fde14610528578063be9af5361461055157610181565b806370a08231146103f557806372b3b620146104325780638da5cb5b1461046257806395d89b411461048d578063a22cb465146104b8578063ae677aa3146104e157610181565b8063202e37401161013e57806342842e0e1161011857806342842e0e1461033b57806345f8fa80146103645780636352211e1461038f5780636e0d3a75146103cc57610181565b8063202e3740146102aa57806323b872dd146102d557806333105218146102fe57610181565b806301ffc9a71461018657806306fdde03146101c3578063081812fc146101ee578063095ea7b31461022b5780630f08efe01461025457806312e855851461027f575b600080fd5b34801561019257600080fd5b506101ad60048036038101906101a89190613519565b610648565b6040516101ba9190613561565b60405180910390f35b3480156101cf57600080fd5b506101d861072a565b6040516101e59190613615565b60405180910390f35b3480156101fa57600080fd5b506102156004803603810190610210919061366d565b6107bc565b60405161022291906136db565b60405180910390f35b34801561023757600080fd5b50610252600480360381019061024d9190613722565b610841565b005b34801561026057600080fd5b50610269610959565b6040516102769190613917565b60405180910390f35b34801561028b57600080fd5b50610294610c73565b6040516102a19190613948565b60405180910390f35b3480156102b657600080fd5b506102bf610c7d565b6040516102cc9190613917565b60405180910390f35b3480156102e157600080fd5b506102fc60048036038101906102f79190613963565b610ff1565b005b34801561030a57600080fd5b50610325600480360381019061032091906139b6565b611051565b6040516103329190613561565b60405180910390f35b34801561034757600080fd5b50610362600480360381019061035d9190613963565b611071565b005b34801561037057600080fd5b50610379611091565b6040516103869190613917565b60405180910390f35b34801561039b57600080fd5b506103b660048036038101906103b1919061366d565b611405565b6040516103c391906136db565b60405180910390f35b3480156103d857600080fd5b506103f360048036038101906103ee91906139e3565b6114b7565b005b34801561040157600080fd5b5061041c600480360381019061041791906139b6565b61164a565b6040516104299190613948565b60405180910390f35b61044c60048036038101906104479190613b58565b611702565b6040516104599190613948565b60405180910390f35b34801561046e57600080fd5b50610477611744565b6040516104849190613bc3565b60405180910390f35b34801561049957600080fd5b506104a261176a565b6040516104af9190613615565b60405180910390f35b3480156104c457600080fd5b506104df60048036038101906104da9190613c0a565b6117fc565b005b6104fb60048036038101906104f6919061366d565b611812565b005b34801561050957600080fd5b506105126118ac565b60405161051f9190613917565b60405180910390f35b34801561053457600080fd5b5061054f600480360381019061054a9190613ceb565b611b58565b005b61056b6004803603810190610566919061366d565b611bba565b005b34801561057957600080fd5b50610594600480360381019061058f919061366d565b611e62565b6040516105a19190613615565b60405180910390f35b6105c460048036038101906105bf91906139e3565b611fb4565b005b3480156105d257600080fd5b506105ed60048036038101906105e8919061366d565b612213565b60405161060299989796959493929190613d6e565b60405180910390f35b34801561061757600080fd5b50610632600480360381019061062d9190613dfb565b6122db565b60405161063f9190613561565b60405180910390f35b60007f80ac58cd000000000000000000000000000000000000000000000000000000007bffffffffffffffffffffffffffffffffffffffffffffffffffffffff1916827bffffffffffffffffffffffffffffffffffffffffffffffffffffffff1916148061071357507f5b5e139f000000000000000000000000000000000000000000000000000000007bffffffffffffffffffffffffffffffffffffffffffffffffffffffff1916827bffffffffffffffffffffffffffffffffffffffffffffffffffffffff1916145b8061072357506107228261236f565b5b9050919050565b60606000805461073990613e6a565b80601f016020809104026020016040519081016040528092919081815260200182805461076590613e6a565b80156107b25780601f10610787576101008083540402835291602001916107b2565b820191906000526020600020905b81548152906001019060200180831161079557829003601f168201915b5050505050905090565b60006107c7826123d9565b610806576040517f08c379a00000000000000000000000000000000000000000000000000000000081526004016107fd90613f0e565b60405180910390fd5b6004600083815260200190815260200160002060009054906101000a900473ffffffffffffffffffffffffffffffffffffffff169050919050565b600061084c82611405565b90508073ffffffffffffffffffffffffffffffffffffffff168373ffffffffffffffffffffffffffffffffffffffff1614156108bd576040517f08c379a00000000000000000000000000000000000000000000000000000000081526004016108b490613fa0565b60405180910390fd5b8073ffffffffffffffffffffffffffffffffffffffff166108dc612445565b73ffffffffffffffffffffffffffffffffffffffff16148061090b575061090a81610905612445565b6122db565b5b61094a576040517f08c379a000000000000000000000000000000000000000000000000000000000815260040161094190614032565b60405180910390fd5b610954838361244d565b505050565b606060006109676007612506565b905060006109756009612506565b90506000808267ffffffffffffffff81111561099457610993613a2d565b5b6040519080825280602002602001820160405280156109cd57816020015b6109ba613378565b8152602001906001900390816109b25790505b50905060005b84811015610c68573073ffffffffffffffffffffffffffffffffffffffff16600c6000600184610a039190614081565b815260200190815260200160002060020160009054906101000a900473ffffffffffffffffffffffffffffffffffffffff1673ffffffffffffffffffffffffffffffffffffffff16148015610a8b575060011515600c6000600184610a689190614081565b815260200190815260200160002060070160019054906101000a900460ff161515145b15610c55576000600182610a9f9190614081565b90506000600c600083815260200190815260200160002090508060405180610120016040529081600082015481526020016001820160009054906101000a900473ffffffffffffffffffffffffffffffffffffffff1673ffffffffffffffffffffffffffffffffffffffff1673ffffffffffffffffffffffffffffffffffffffff1681526020016002820160009054906101000a900473ffffffffffffffffffffffffffffffffffffffff1673ffffffffffffffffffffffffffffffffffffffff1673ffffffffffffffffffffffffffffffffffffffff1681526020016003820160009054906101000a900473ffffffffffffffffffffffffffffffffffffffff1673ffffffffffffffffffffffffffffffffffffffff1673ffffffffffffffffffffffffffffffffffffffff1681526020016004820154815260200160058201548152602001600682015481526020016007820160009054906101000a900460ff161515151581526020016007820160019054906101000a900460ff161515151581525050848681518110610c3857610c376140d7565b5b6020026020010181905250600185610c509190614081565b945050505b8080610c6090614106565b9150506109d3565b508094505050505090565b6000600a54905090565b60606000610c8b6007612506565b905060008060005b83811015610d34573373ffffffffffffffffffffffffffffffffffffffff16600c6000600184610cc39190614081565b815260200190815260200160002060020160009054906101000a900473ffffffffffffffffffffffffffffffffffffffff1673ffffffffffffffffffffffffffffffffffffffff161415610d2157600183610d1e9190614081565b92505b8080610d2c90614106565b915050610c93565b5060008267ffffffffffffffff811115610d5157610d50613a2d565b5b604051908082528060200260200182016040528015610d8a57816020015b610d77613378565b815260200190600190039081610d6f5790505b50905060005b84811015610fe6573373ffffffffffffffffffffffffffffffffffffffff16600c6000600184610dc09190614081565b815260200190815260200160002060020160009054906101000a900473ffffffffffffffffffffffffffffffffffffffff1673ffffffffffffffffffffffffffffffffffffffff161415610fd3576000600182610e1d9190614081565b90506000600c600083815260200190815260200160002090508060405180610120016040529081600082015481526020016001820160009054906101000a900473ffffffffffffffffffffffffffffffffffffffff1673ffffffffffffffffffffffffffffffffffffffff1673ffffffffffffffffffffffffffffffffffffffff1681526020016002820160009054906101000a900473ffffffffffffffffffffffffffffffffffffffff1673ffffffffffffffffffffffffffffffffffffffff1673ffffffffffffffffffffffffffffffffffffffff1681526020016003820160009054906101000a900473ffffffffffffffffffffffffffffffffffffffff1673ffffffffffffffffffffffffffffffffffffffff1673ffffffffffffffffffffffffffffffffffffffff1681526020016004820154815260200160058201548152602001600682015481526020016007820160009054906101000a900460ff161515151581526020016007820160019054906101000a900460ff161515151581525050848681518110610fb657610fb56140d7565b5b6020026020010181905250600185610fce9190614081565b945050505b8080610fde90614106565b915050610d90565b508094505050505090565b611002610ffc612445565b82612514565b611041576040517f08c379a0000000000000000000000000000000000000000000000000000000008152600401611038906141c1565b60405180910390fd5b61104c8383836125f2565b505050565b600d6020528060005260406000206000915054906101000a900460ff1681565b61108c83838360405180602001604052806000815250611b58565b505050565b6060600061109f6007612506565b905060008060005b83811015611148573373ffffffffffffffffffffffffffffffffffffffff16600c60006001846110d79190614081565b815260200190815260200160002060010160009054906101000a900473ffffffffffffffffffffffffffffffffffffffff1673ffffffffffffffffffffffffffffffffffffffff161415611135576001836111329190614081565b92505b808061114090614106565b9150506110a7565b5060008267ffffffffffffffff81111561116557611164613a2d565b5b60405190808252806020026020018201604052801561119e57816020015b61118b613378565b8152602001906001900390816111835790505b50905060005b848110156113fa573373ffffffffffffffffffffffffffffffffffffffff16600c60006001846111d49190614081565b815260200190815260200160002060010160009054906101000a900473ffffffffffffffffffffffffffffffffffffffff1673ffffffffffffffffffffffffffffffffffffffff1614156113e75760006001826112319190614081565b90506000600c600083815260200190815260200160002090508060405180610120016040529081600082015481526020016001820160009054906101000a900473ffffffffffffffffffffffffffffffffffffffff1673ffffffffffffffffffffffffffffffffffffffff1673ffffffffffffffffffffffffffffffffffffffff1681526020016002820160009054906101000a900473ffffffffffffffffffffffffffffffffffffffff1673ffffffffffffffffffffffffffffffffffffffff1673ffffffffffffffffffffffffffffffffffffffff1681526020016003820160009054906101000a900473ffffffffffffffffffffffffffffffffffffffff1673ffffffffffffffffffffffffffffffffffffffff1673ffffffffffffffffffffffffffffffffffffffff1681526020016004820154815260200160058201548152602001600682015481526020016007820160009054906101000a900460ff161515151581526020016007820160019054906101000a900460ff1615151515815250508486815181106113ca576113c96140d7565b5b60200260200101819052506001856113e29190614081565b945050505b80806113f290614106565b9150506111a4565b508094505050505090565b6000806002600084815260200190815260200160002060009054906101000a900473ffffffffffffffffffffffffffffffffffffffff169050600073ffffffffffffffffffffffffffffffffffffffff168173ffffffffffffffffffffffffffffffffffffffff1614156114ae576040517f08c379a00000000000000000000000000000000000000000000000000000000081526004016114a590614253565b60405180910390fd5b80915050919050565b60011515600d60003373ffffffffffffffffffffffffffffffffffffffff1673ffffffffffffffffffffffffffffffffffffffff16815260200190815260200160002060009054906101000a900460ff1615151461154a576040517f08c379a0000000000000000000000000000000000000000000000000000000008152600401611541906142e5565b60405180910390fd5b6115546009612859565b80600c60008481526020019081526020016000206005018190555042600c6000848152602001908152602001600020600601819055506001600c600084815260200190815260200160002060070160016101000a81548160ff02191690831515021790555033600c600084815260200190815260200160002060030160006101000a81548173ffffffffffffffffffffffffffffffffffffffff021916908373ffffffffffffffffffffffffffffffffffffffff160217905550817f4a3d1907355e486fa9dec825eb6c9381047283bfe4872c21db8adbffab9168a63360405161163e91906136db565b60405180910390a25050565b60008073ffffffffffffffffffffffffffffffffffffffff168273ffffffffffffffffffffffffffffffffffffffff1614156116bb576040517f08c379a00000000000000000000000000000000000000000000000000000000081526004016116b290614377565b60405180910390fd5b600360008373ffffffffffffffffffffffffffffffffffffffff1673ffffffffffffffffffffffffffffffffffffffff168152602001908152602001600020549050919050565b600061170e6007612859565b600061171a6007612506565b9050611726338261286f565b6117308185612a49565b61173a8184612abd565b8091505092915050565b600b60009054906101000a900473ffffffffffffffffffffffffffffffffffffffff1681565b60606001805461177990613e6a565b80601f01602080910402602001604051908101604052809291908181526020018280546117a590613e6a565b80156117f25780601f106117c7576101008083540402835291602001916117f2565b820191906000526020600020905b8154815290600101906020018083116117d557829003601f168201915b5050505050905090565b61180e611807612445565b8383612d70565b5050565b3373ffffffffffffffffffffffffffffffffffffffff16600b60009054906101000a900473ffffffffffffffffffffffffffffffffffffffff1673ffffffffffffffffffffffffffffffffffffffff16146118a2576040517f08c379a000000000000000000000000000000000000000000000000000000000815260040161189990614409565b60405180910390fd5b80600a8190555050565b606060006118ba6007612506565b905060006118c86009612506565b905060008082846118d99190614429565b67ffffffffffffffff8111156118f2576118f1613a2d565b5b60405190808252806020026020018201604052801561192b57816020015b611918613378565b8152602001906001900390816119105790505b50905060005b84811015611b4d5760001515600c600060018461194e9190614081565b815260200190815260200160002060070160019054906101000a900460ff1615151415611b3a5760006001826119849190614081565b90506000600c600083815260200190815260200160002090508060405180610120016040529081600082015481526020016001820160009054906101000a900473ffffffffffffffffffffffffffffffffffffffff1673ffffffffffffffffffffffffffffffffffffffff1673ffffffffffffffffffffffffffffffffffffffff1681526020016002820160009054906101000a900473ffffffffffffffffffffffffffffffffffffffff1673ffffffffffffffffffffffffffffffffffffffff1673ffffffffffffffffffffffffffffffffffffffff1681526020016003820160009054906101000a900473ffffffffffffffffffffffffffffffffffffffff1673ffffffffffffffffffffffffffffffffffffffff1673ffffffffffffffffffffffffffffffffffffffff1681526020016004820154815260200160058201548152602001600682015481526020016007820160009054906101000a900460ff161515151581526020016007820160019054906101000a900460ff161515151581525050848681518110611b1d57611b1c6140d7565b5b6020026020010181905250600185611b359190614081565b945050505b8080611b4590614106565b915050611931565b508094505050505090565b611b69611b63612445565b83612514565b611ba8576040517f08c379a0000000000000000000000000000000000000000000000000000000008152600401611b9f906141c1565b60405180910390fd5b611bb484848484612edd565b50505050565b6000600c60008381526020019081526020016000206004015490506000600c600084815260200190815260200160002060010160009054906101000a900473ffffffffffffffffffffffffffffffffffffffff169050813414611c52576040517f08c379a0000000000000000000000000000000000000000000000000000000008152600401611c49906144cf565b60405180910390fd5b60011515600c600085815260200190815260200160002060070160019054906101000a900460ff16151514611cbc576040517f08c379a0000000000000000000000000000000000000000000000000000000008152600401611cb390614561565b60405180910390fd5b33600c600085815260200190815260200160002060020160006101000a81548173ffffffffffffffffffffffffffffffffffffffff021916908373ffffffffffffffffffffffffffffffffffffffff1602179055506001600c600085815260200190815260200160002060070160006101000a81548160ff0219169083151502179055506000600c600085815260200190815260200160002060010160006101000a81548173ffffffffffffffffffffffffffffffffffffffff021916908373ffffffffffffffffffffffffffffffffffffffff160217905550611da06008612859565b611dab3033856125f2565b600b60009054906101000a900473ffffffffffffffffffffffffffffffffffffffff1673ffffffffffffffffffffffffffffffffffffffff166108fc600a549081150290604051600060405180830381858888f19350505050158015611e15573d6000803e3d6000fd5b508073ffffffffffffffffffffffffffffffffffffffff166108fc349081150290604051600060405180830381858888f19350505050158015611e5c573d6000803e3d6000fd5b50505050565b6060611e6d826123d9565b611eac576040517f08c379a0000000000000000000000000000000000000000000000000000000008152600401611ea3906145f3565b60405180910390fd5b6000600660008481526020019081526020016000208054611ecc90613e6a565b80601f0160208091040260200160405190810160405280929190818152602001828054611ef890613e6a565b8015611f455780601f10611f1a57610100808354040283529160200191611f45565b820191906000526020600020905b815481529060010190602001808311611f2857829003601f168201915b505050505090506000611f56612f39565b9050600081511415611f6c578192505050611faf565b600082511115611fa1578082604051602001611f8992919061464f565b60405160208183030381529060405292505050611faf565b611faa84612f50565b925050505b919050565b3373ffffffffffffffffffffffffffffffffffffffff16600c600084815260200190815260200160002060020160009054906101000a900473ffffffffffffffffffffffffffffffffffffffff1673ffffffffffffffffffffffffffffffffffffffff1614612058576040517f08c379a000000000000000000000000000000000000000000000000000000000815260040161204f906146e5565b60405180910390fd5b60011515600c600084815260200190815260200160002060070160019054906101000a900460ff161515146120c2576040517f08c379a00000000000000000000000000000000000000000000000000000000081526004016120b990614561565b60405180910390fd5b600a543414612106576040517f08c379a00000000000000000000000000000000000000000000000000000000081526004016120fd90614777565b60405180910390fd5b6000600c600084815260200190815260200160002060070160006101000a81548160ff02191690831515021790555080600c60008481526020019081526020016000206004018190555033600c600084815260200190815260200160002060010160006101000a81548173ffffffffffffffffffffffffffffffffffffffff021916908373ffffffffffffffffffffffffffffffffffffffff16021790555030600c600084815260200190815260200160002060020160006101000a81548173ffffffffffffffffffffffffffffffffffffffff021916908373ffffffffffffffffffffffffffffffffffffffff1602179055506122046008612ff7565b61220f3330846125f2565b5050565b600c6020528060005260406000206000915090508060000154908060010160009054906101000a900473ffffffffffffffffffffffffffffffffffffffff16908060020160009054906101000a900473ffffffffffffffffffffffffffffffffffffffff16908060030160009054906101000a900473ffffffffffffffffffffffffffffffffffffffff16908060040154908060050154908060060154908060070160009054906101000a900460ff16908060070160019054906101000a900460ff16905089565b6000600560008473ffffffffffffffffffffffffffffffffffffffff1673ffffffffffffffffffffffffffffffffffffffff16815260200190815260200160002060008373ffffffffffffffffffffffffffffffffffffffff1673ffffffffffffffffffffffffffffffffffffffff16815260200190815260200160002060009054906101000a900460ff16905092915050565b60007f01ffc9a7000000000000000000000000000000000000000000000000000000007bffffffffffffffffffffffffffffffffffffffffffffffffffffffff1916827bffffffffffffffffffffffffffffffffffffffffffffffffffffffff1916149050919050565b60008073ffffffffffffffffffffffffffffffffffffffff166002600084815260200190815260200160002060009054906101000a900473ffffffffffffffffffffffffffffffffffffffff1673ffffffffffffffffffffffffffffffffffffffff1614159050919050565b600033905090565b816004600083815260200190815260200160002060006101000a81548173ffffffffffffffffffffffffffffffffffffffff021916908373ffffffffffffffffffffffffffffffffffffffff160217905550808273ffffffffffffffffffffffffffffffffffffffff166124c083611405565b73ffffffffffffffffffffffffffffffffffffffff167f8c5be1e5ebec7d5bd14f71427d1e84f3dd0314c0f7b2291e5b200ac8c7c3b92560405160405180910390a45050565b600081600001549050919050565b600061251f826123d9565b61255e576040517f08c379a000000000000000000000000000000000000000000000000000000000815260040161255590614809565b60405180910390fd5b600061256983611405565b90508073ffffffffffffffffffffffffffffffffffffffff168473ffffffffffffffffffffffffffffffffffffffff1614806125d857508373ffffffffffffffffffffffffffffffffffffffff166125c0846107bc565b73ffffffffffffffffffffffffffffffffffffffff16145b806125e957506125e881856122db565b5b91505092915050565b8273ffffffffffffffffffffffffffffffffffffffff1661261282611405565b73ffffffffffffffffffffffffffffffffffffffff1614612668576040517f08c379a000000000000000000000000000000000000000000000000000000000815260040161265f9061489b565b60405180910390fd5b600073ffffffffffffffffffffffffffffffffffffffff168273ffffffffffffffffffffffffffffffffffffffff1614156126d8576040517f08c379a00000000000000000000000000000000000000000000000000000000081526004016126cf9061492d565b60405180910390fd5b6126e3838383613053565b6126ee60008261244d565b6001600360008573ffffffffffffffffffffffffffffffffffffffff1673ffffffffffffffffffffffffffffffffffffffff168152602001908152602001600020600082825461273e9190614429565b925050819055506001600360008473ffffffffffffffffffffffffffffffffffffffff1673ffffffffffffffffffffffffffffffffffffffff16815260200190815260200160002060008282546127959190614081565b92505081905550816002600083815260200190815260200160002060006101000a81548173ffffffffffffffffffffffffffffffffffffffff021916908373ffffffffffffffffffffffffffffffffffffffff160217905550808273ffffffffffffffffffffffffffffffffffffffff168473ffffffffffffffffffffffffffffffffffffffff167fddf252ad1be2c89b69c2b068fc378daa952ba7f163c4a11628f55a4df523b3ef60405160405180910390a4612854838383613058565b505050565b6001816000016000828254019250508190555050565b600073ffffffffffffffffffffffffffffffffffffffff168273ffffffffffffffffffffffffffffffffffffffff1614156128df576040517f08c379a00000000000000000000000000000000000000000000000000000000081526004016128d690614999565b60405180910390fd5b6128e8816123d9565b15612928576040517f08c379a000000000000000000000000000000000000000000000000000000000815260040161291f90614a05565b60405180910390fd5b61293460008383613053565b6001600360008473ffffffffffffffffffffffffffffffffffffffff1673ffffffffffffffffffffffffffffffffffffffff16815260200190815260200160002060008282546129849190614081565b92505081905550816002600083815260200190815260200160002060006101000a81548173ffffffffffffffffffffffffffffffffffffffff021916908373ffffffffffffffffffffffffffffffffffffffff160217905550808273ffffffffffffffffffffffffffffffffffffffff16600073ffffffffffffffffffffffffffffffffffffffff167fddf252ad1be2c89b69c2b068fc378daa952ba7f163c4a11628f55a4df523b3ef60405160405180910390a4612a4560008383613058565b5050565b612a52826123d9565b612a91576040517f08c379a0000000000000000000000000000000000000000000000000000000008152600401612a8890614a97565b60405180910390fd5b80600660008481526020019081526020016000209080519060200190612ab892919061340a565b505050565b60008111612b00576040517f08c379a0000000000000000000000000000000000000000000000000000000008152600401612af790614b03565b60405180910390fd5b600a543414612b44576040517f08c379a0000000000000000000000000000000000000000000000000000000008152600401612b3b90614777565b60405180910390fd5b6040518061012001604052808381526020013373ffffffffffffffffffffffffffffffffffffffff1681526020013373ffffffffffffffffffffffffffffffffffffffff168152602001600073ffffffffffffffffffffffffffffffffffffffff168152602001828152602001600081526020016000815260200160001515815260200160001515815250600c60008481526020019081526020016000206000820151816000015560208201518160010160006101000a81548173ffffffffffffffffffffffffffffffffffffffff021916908373ffffffffffffffffffffffffffffffffffffffff16021790555060408201518160020160006101000a81548173ffffffffffffffffffffffffffffffffffffffff021916908373ffffffffffffffffffffffffffffffffffffffff16021790555060608201518160030160006101000a81548173ffffffffffffffffffffffffffffffffffffffff021916908373ffffffffffffffffffffffffffffffffffffffff1602179055506080820151816004015560a0820151816005015560c0820151816006015560e08201518160070160006101000a81548160ff0219169083151502179055506101008201518160070160016101000a81548160ff021916908315150217905550905050612d2d6008612859565b817fb640004f1d14576d0c209e240cad0410e0d8c0c33a09375861fbadae2588a98d3330846000604051612d649493929190614b23565b60405180910390a25050565b8173ffffffffffffffffffffffffffffffffffffffff168373ffffffffffffffffffffffffffffffffffffffff161415612ddf576040517f08c379a0000000000000000000000000000000000000000000000000000000008152600401612dd690614bb4565b60405180910390fd5b80600560008573ffffffffffffffffffffffffffffffffffffffff1673ffffffffffffffffffffffffffffffffffffffff16815260200190815260200160002060008473ffffffffffffffffffffffffffffffffffffffff1673ffffffffffffffffffffffffffffffffffffffff16815260200190815260200160002060006101000a81548160ff0219169083151502179055508173ffffffffffffffffffffffffffffffffffffffff168373ffffffffffffffffffffffffffffffffffffffff167f17307eab39ab6107e8899845ad3d59bd9653f200f220920489ca2b5937696c3183604051612ed09190613561565b60405180910390a3505050565b612ee88484846125f2565b612ef48484848461305d565b612f33576040517f08c379a0000000000000000000000000000000000000000000000000000000008152600401612f2a90614c46565b60405180910390fd5b50505050565b606060405180602001604052806000815250905090565b6060612f5b826123d9565b612f9a576040517f08c379a0000000000000000000000000000000000000000000000000000000008152600401612f9190614cd8565b60405180910390fd5b6000612fa4612f39565b90506000815111612fc45760405180602001604052806000815250612fef565b80612fce846131f4565b604051602001612fdf92919061464f565b6040516020818303038152906040525b915050919050565b60008160000154905060008111613043576040517f08c379a000000000000000000000000000000000000000000000000000000000815260040161303a90614d44565b60405180910390fd5b6001810382600001819055505050565b505050565b505050565b600061307e8473ffffffffffffffffffffffffffffffffffffffff16613355565b156131e7578373ffffffffffffffffffffffffffffffffffffffff1663150b7a026130a7612445565b8786866040518563ffffffff1660e01b81526004016130c99493929190614db9565b602060405180830381600087803b1580156130e357600080fd5b505af192505050801561311457506040513d601f19601f820116820180604052508101906131119190614e1a565b60015b613197573d8060008114613144576040519150601f19603f3d011682016040523d82523d6000602084013e613149565b606091505b5060008151141561318f576040517f08c379a000000000000000000000000000000000000000000000000000000000815260040161318690614c46565b60405180910390fd5b805181602001fd5b63150b7a0260e01b7bffffffffffffffffffffffffffffffffffffffffffffffffffffffff1916817bffffffffffffffffffffffffffffffffffffffffffffffffffffffff1916149150506131ec565b600190505b949350505050565b6060600082141561323c576040518060400160405280600181526020017f30000000000000000000000000000000000000000000000000000000000000008152509050613350565b600082905060005b6000821461326e57808061325790614106565b915050600a826132679190614e76565b9150613244565b60008167ffffffffffffffff81111561328a57613289613a2d565b5b6040519080825280601f01601f1916602001820160405280156132bc5781602001600182028036833780820191505090505b5090505b60008514613349576001826132d59190614429565b9150600a856132e49190614ea7565b60306132f09190614081565b60f81b818381518110613306576133056140d7565b5b60200101907effffffffffffffffffffffffffffffffffffffffffffffffffffffffffffff1916908160001a905350600a856133429190614e76565b94506132c0565b8093505050505b919050565b6000808273ffffffffffffffffffffffffffffffffffffffff163b119050919050565b60405180610120016040528060008152602001600073ffffffffffffffffffffffffffffffffffffffff168152602001600073ffffffffffffffffffffffffffffffffffffffff168152602001600073ffffffffffffffffffffffffffffffffffffffff1681526020016000815260200160008152602001600081526020016000151581526020016000151581525090565b82805461341690613e6a565b90600052602060002090601f016020900481019282613438576000855561347f565b82601f1061345157805160ff191683800117855561347f565b8280016001018555821561347f579182015b8281111561347e578251825591602001919060010190613463565b5b50905061348c9190613490565b5090565b5b808211156134a9576000816000905550600101613491565b5090565b6000604051905090565b600080fd5b600080fd5b60007fffffffff0000000000000000000000000000000000000000000000000000000082169050919050565b6134f6816134c1565b811461350157600080fd5b50565b600081359050613513816134ed565b92915050565b60006020828403121561352f5761352e6134b7565b5b600061353d84828501613504565b91505092915050565b60008115159050919050565b61355b81613546565b82525050565b60006020820190506135766000830184613552565b92915050565b600081519050919050565b600082825260208201905092915050565b60005b838110156135b657808201518184015260208101905061359b565b838111156135c5576000848401525b50505050565b6000601f19601f8301169050919050565b60006135e78261357c565b6135f18185613587565b9350613601818560208601613598565b61360a816135cb565b840191505092915050565b6000602082019050818103600083015261362f81846135dc565b905092915050565b6000819050919050565b61364a81613637565b811461365557600080fd5b50565b60008135905061366781613641565b92915050565b600060208284031215613683576136826134b7565b5b600061369184828501613658565b91505092915050565b600073ffffffffffffffffffffffffffffffffffffffff82169050919050565b60006136c58261369a565b9050919050565b6136d5816136ba565b82525050565b60006020820190506136f060008301846136cc565b92915050565b6136ff816136ba565b811461370a57600080fd5b50565b60008135905061371c816136f6565b92915050565b60008060408385031215613739576137386134b7565b5b60006137478582860161370d565b925050602061375885828601613658565b9150509250929050565b600081519050919050565b600082825260208201905092915050565b6000819050602082019050919050565b61379781613637565b82525050565b60006137a88261369a565b9050919050565b6137b88161379d565b82525050565b6137c7816136ba565b82525050565b6137d681613546565b82525050565b610120820160008201516137f3600085018261378e565b50602082015161380660208501826137af565b50604082015161381960408501826137af565b50606082015161382c60608501826137be565b50608082015161383f608085018261378e565b5060a082015161385260a085018261378e565b5060c082015161386560c085018261378e565b5060e082015161387860e08501826137cd565b5061010082015161388d6101008501826137cd565b50505050565b600061389f83836137dc565b6101208301905092915050565b6000602082019050919050565b60006138c482613762565b6138ce818561376d565b93506138d98361377e565b8060005b8381101561390a5781516138f18882613893565b97506138fc836138ac565b9250506001810190506138dd565b5085935050505092915050565b6000602082019050818103600083015261393181846138b9565b905092915050565b61394281613637565b82525050565b600060208201905061395d6000830184613939565b92915050565b60008060006060848603121561397c5761397b6134b7565b5b600061398a8682870161370d565b935050602061399b8682870161370d565b92505060406139ac86828701613658565b9150509250925092565b6000602082840312156139cc576139cb6134b7565b5b60006139da8482850161370d565b91505092915050565b600080604083850312156139fa576139f96134b7565b5b6000613a0885828601613658565b9250506020613a1985828601613658565b9150509250929050565b600080fd5b600080fd5b7f4e487b7100000000000000000000000000000000000000000000000000000000600052604160045260246000fd5b613a65826135cb565b810181811067ffffffffffffffff82111715613a8457613a83613a2d565b5b80604052505050565b6000613a976134ad565b9050613aa38282613a5c565b919050565b600067ffffffffffffffff821115613ac357613ac2613a2d565b5b613acc826135cb565b9050602081019050919050565b82818337600083830152505050565b6000613afb613af684613aa8565b613a8d565b905082815260208101848484011115613b1757613b16613a28565b5b613b22848285613ad9565b509392505050565b600082601f830112613b3f57613b3e613a23565b5b8135613b4f848260208601613ae8565b91505092915050565b60008060408385031215613b6f57613b6e6134b7565b5b600083013567ffffffffffffffff811115613b8d57613b8c6134bc565b5b613b9985828601613b2a565b9250506020613baa85828601613658565b9150509250929050565b613bbd8161379d565b82525050565b6000602082019050613bd86000830184613bb4565b92915050565b613be781613546565b8114613bf257600080fd5b50565b600081359050613c0481613bde565b92915050565b60008060408385031215613c2157613c206134b7565b5b6000613c2f8582860161370d565b9250506020613c4085828601613bf5565b9150509250929050565b600067ffffffffffffffff821115613c6557613c64613a2d565b5b613c6e826135cb565b9050602081019050919050565b6000613c8e613c8984613c4a565b613a8d565b905082815260208101848484011115613caa57613ca9613a28565b5b613cb5848285613ad9565b509392505050565b600082601f830112613cd257613cd1613a23565b5b8135613ce2848260208601613c7b565b91505092915050565b60008060008060808587031215613d0557613d046134b7565b5b6000613d138782880161370d565b9450506020613d248782880161370d565b9350506040613d3587828801613658565b925050606085013567ffffffffffffffff811115613d5657613d556134bc565b5b613d6287828801613cbd565b91505092959194509250565b600061012082019050613d84600083018c613939565b613d91602083018b613bb4565b613d9e604083018a613bb4565b613dab60608301896136cc565b613db86080830188613939565b613dc560a0830187613939565b613dd260c0830186613939565b613ddf60e0830185613552565b613ded610100830184613552565b9a9950505050505050505050565b60008060408385031215613e1257613e116134b7565b5b6000613e208582860161370d565b9250506020613e318582860161370d565b9150509250929050565b7f4e487b7100000000000000000000000000000000000000000000000000000000600052602260045260246000fd5b60006002820490506001821680613e8257607f821691505b60208210811415613e9657613e95613e3b565b5b50919050565b7f4552433732313a20617070726f76656420717565727920666f72206e6f6e657860008201527f697374656e7420746f6b656e0000000000000000000000000000000000000000602082015250565b6000613ef8602c83613587565b9150613f0382613e9c565b604082019050919050565b60006020820190508181036000830152613f2781613eeb565b9050919050565b7f4552433732313a20617070726f76616c20746f2063757272656e74206f776e6560008201527f7200000000000000000000000000000000000000000000000000000000000000602082015250565b6000613f8a602183613587565b9150613f9582613f2e565b604082019050919050565b60006020820190508181036000830152613fb981613f7d565b9050919050565b7f4552433732313a20617070726f76652063616c6c6572206973206e6f74206f7760008201527f6e6572206e6f7220617070726f76656420666f7220616c6c0000000000000000602082015250565b600061401c603883613587565b915061402782613fc0565b604082019050919050565b6000602082019050818103600083015261404b8161400f565b9050919050565b7f4e487b7100000000000000000000000000000000000000000000000000000000600052601160045260246000fd5b600061408c82613637565b915061409783613637565b9250827fffffffffffffffffffffffffffffffffffffffffffffffffffffffffffffffff038211156140cc576140cb614052565b5b828201905092915050565b7f4e487b7100000000000000000000000000000000000000000000000000000000600052603260045260246000fd5b600061411182613637565b91507fffffffffffffffffffffffffffffffffffffffffffffffffffffffffffffffff82141561414457614143614052565b5b600182019050919050565b7f4552433732313a207472616e736665722063616c6c6572206973206e6f74206f60008201527f776e6572206e6f7220617070726f766564000000000000000000000000000000602082015250565b60006141ab603183613587565b91506141b68261414f565b604082019050919050565b600060208201905081810360008301526141da8161419e565b9050919050565b7f4552433732313a206f776e657220717565727920666f72206e6f6e657869737460008201527f656e7420746f6b656e0000000000000000000000000000000000000000000000602082015250565b600061423d602983613587565b9150614248826141e1565b604082019050919050565b6000602082019050818103600083015261426c81614230565b9050919050565b7f4f6e6c79205665726966696564204163636f756e74732063616e20626520757360008201527f656420746f205665726966792041737365740000000000000000000000000000602082015250565b60006142cf603283613587565b91506142da82614273565b604082019050919050565b600060208201905081810360008301526142fe816142c2565b9050919050565b7f4552433732313a2062616c616e636520717565727920666f7220746865207a6560008201527f726f206164647265737300000000000000000000000000000000000000000000602082015250565b6000614361602a83613587565b915061436c82614305565b604082019050919050565b6000602082019050818103600083015261439081614354565b9050919050565b7f4f6e6c79206d61726b6574706c616365206f776e65722063616e20757064617460008201527f65206c697374696e672070726963652e00000000000000000000000000000000602082015250565b60006143f3603083613587565b91506143fe82614397565b604082019050919050565b60006020820190508181036000830152614422816143e6565b9050919050565b600061443482613637565b915061443f83613637565b92508282101561445257614451614052565b5b828203905092915050565b7f506c65617365207375626d6974207468652061736b696e67207072696365206960008201527f6e206f7264657220746f20636f6d706c65746520746865207075726368617365602082015250565b60006144b9604083613587565b91506144c48261445d565b604082019050919050565b600060208201905081810360008301526144e8816144ac565b9050919050565b7f4f6e6c792056657269666965642050726f706572746965732063616e2062652060008201527f536f6c6400000000000000000000000000000000000000000000000000000000602082015250565b600061454b602483613587565b9150614556826144ef565b604082019050919050565b6000602082019050818103600083015261457a8161453e565b9050919050565b7f45524337323155524953746f726167653a2055524920717565727920666f722060008201527f6e6f6e6578697374656e7420746f6b656e000000000000000000000000000000602082015250565b60006145dd603183613587565b91506145e882614581565b604082019050919050565b6000602082019050818103600083015261460c816145d0565b9050919050565b600081905092915050565b60006146298261357c565b6146338185614613565b9350614643818560208601613598565b80840191505092915050565b600061465b828561461e565b9150614667828461461e565b91508190509392505050565b7f4f6e6c79206974656d206f776e65722063616e20706572666f726d207468697360008201527f206f7065726174696f6e00000000000000000000000000000000000000000000602082015250565b60006146cf602a83613587565b91506146da82614673565b604082019050919050565b600060208201905081810360008301526146fe816146c2565b9050919050565b7f5072696365206d75737420626520657175616c20746f206c697374696e67207060008201527f7269636500000000000000000000000000000000000000000000000000000000602082015250565b6000614761602483613587565b915061476c82614705565b604082019050919050565b6000602082019050818103600083015261479081614754565b9050919050565b7f4552433732313a206f70657261746f7220717565727920666f72206e6f6e657860008201527f697374656e7420746f6b656e0000000000000000000000000000000000000000602082015250565b60006147f3602c83613587565b91506147fe82614797565b604082019050919050565b60006020820190508181036000830152614822816147e6565b9050919050565b7f4552433732313a207472616e736665722066726f6d20696e636f72726563742060008201527f6f776e6572000000000000000000000000000000000000000000000000000000602082015250565b6000614885602583613587565b915061489082614829565b604082019050919050565b600060208201905081810360008301526148b481614878565b9050919050565b7f4552433732313a207472616e7366657220746f20746865207a65726f2061646460008201527f7265737300000000000000000000000000000000000000000000000000000000602082015250565b6000614917602483613587565b9150614922826148bb565b604082019050919050565b600060208201905081810360008301526149468161490a565b9050919050565b7f4552433732313a206d696e7420746f20746865207a65726f2061646472657373600082015250565b6000614983602083613587565b915061498e8261494d565b602082019050919050565b600060208201905081810360008301526149b281614976565b9050919050565b7f4552433732313a20746f6b656e20616c7265616479206d696e74656400000000600082015250565b60006149ef601c83613587565b91506149fa826149b9565b602082019050919050565b60006020820190508181036000830152614a1e816149e2565b9050919050565b7f45524337323155524953746f726167653a2055524920736574206f66206e6f6e60008201527f6578697374656e7420746f6b656e000000000000000000000000000000000000602082015250565b6000614a81602e83613587565b9150614a8c82614a25565b604082019050919050565b60006020820190508181036000830152614ab081614a74565b9050919050565b7f5072696365206d757374206265206174206c6561737420312077656900000000600082015250565b6000614aed601c83613587565b9150614af882614ab7565b602082019050919050565b60006020820190508181036000830152614b1c81614ae0565b9050919050565b6000608082019050614b3860008301876136cc565b614b4560208301866136cc565b614b526040830185613939565b614b5f6060830184613552565b95945050505050565b7f4552433732313a20617070726f766520746f2063616c6c657200000000000000600082015250565b6000614b9e601983613587565b9150614ba982614b68565b602082019050919050565b60006020820190508181036000830152614bcd81614b91565b9050919050565b7f4552433732313a207472616e7366657220746f206e6f6e20455243373231526560008201527f63656976657220696d706c656d656e7465720000000000000000000000000000602082015250565b6000614c30603283613587565b9150614c3b82614bd4565b604082019050919050565b60006020820190508181036000830152614c5f81614c23565b9050919050565b7f4552433732314d657461646174613a2055524920717565727920666f72206e6f60008201527f6e6578697374656e7420746f6b656e0000000000000000000000000000000000602082015250565b6000614cc2602f83613587565b9150614ccd82614c66565b604082019050919050565b60006020820190508181036000830152614cf181614cb5565b9050919050565b7f436f756e7465723a2064656372656d656e74206f766572666c6f770000000000600082015250565b6000614d2e601b83613587565b9150614d3982614cf8565b602082019050919050565b60006020820190508181036000830152614d5d81614d21565b9050919050565b600081519050919050565b600082825260208201905092915050565b6000614d8b82614d64565b614d958185614d6f565b9350614da5818560208601613598565b614dae816135cb565b840191505092915050565b6000608082019050614dce60008301876136cc565b614ddb60208301866136cc565b614de86040830185613939565b8181036060830152614dfa8184614d80565b905095945050505050565b600081519050614e14816134ed565b92915050565b600060208284031215614e3057614e2f6134b7565b5b6000614e3e84828501614e05565b91505092915050565b7f4e487b7100000000000000000000000000000000000000000000000000000000600052601260045260246000fd5b6000614e8182613637565b9150614e8c83613637565b925082614e9c57614e9b614e47565b5b828204905092915050565b6000614eb282613637565b9150614ebd83613637565b925082614ecd57614ecc614e47565b5b82820690509291505056fea264697066735822122002ab3ab8d6f09f6876b82feadf870eb526e05350876bb2a9e35d339c3e3312ce64736f6c63430008090033",
  "immutableReferences": {},
  "source": "// SPDX-License-Identifier: MIT\npragma solidity ^0.8.4;\n\nimport \"@openzeppelin/contracts/utils/Counters.sol\";\nimport \"@openzeppelin/contracts/token/ERC721/extensions/ERC721URIStorage.sol\";\nimport \"@openzeppelin/contracts/token/ERC721/ERC721.sol\";\n\ncontract NFTMarketplace is ERC721URIStorage {\n    using Counters for Counters.Counter;\n    Counters.Counter private _tokenIds;\n    Counters.Counter private _itemsSold;\n    Counters.Counter private _verified;\n\n    uint256 listingPrice = 1 ether;\n    address payable public owner;\n\n    mapping(uint256 => MarketItem) public idToMarketItem;\n    mapping(address => bool) public isVerifier;\n\n    struct MarketItem {\n        uint256 tokenId;\n        address payable seller;\n        address payable owner;\n        address verifier;\n        uint256 price;\n        uint256 valuation;\n        uint256 valuationDate;\n        bool sold;\n        bool verified;\n    }\n\n    event MarketItemCreated(\n        uint256 indexed tokenId,\n        address seller,\n        address owner,\n        uint256 price,\n        bool sold\n    );\n\n    event TokenVerified(uint256 indexed tokenId, address verifier);\n\n    constructor() ERC721(\"Real Estate Token\", \"RST\") {\n        owner = payable(msg.sender);\n        isVerifier[msg.sender] = true;\n    }\n\n    /* Updates the listing price of the contract */\n    function updateListingPrice(uint256 _listingPrice) public payable {\n        require(\n            owner == msg.sender,\n            \"Only marketplace owner can update listing price.\"\n        );\n        listingPrice = _listingPrice;\n    }\n\n    /* Returns the listing price of the contract */\n    function getListingPrice() public view returns (uint256) {\n        return listingPrice;\n    }\n\n    /* Mints a token and lists it in the marketplace */\n    function createToken(string memory tokenURI, uint256 price)\n        public\n        payable\n        returns (uint256)\n    {\n        _tokenIds.increment();\n        uint256 newTokenId = _tokenIds.current();\n\n        _mint(msg.sender, newTokenId);\n        _setTokenURI(newTokenId, tokenURI);\n        createMarketItem(newTokenId, price);\n        return newTokenId;\n    }\n\n    function verifyToken(uint256 _tokenId, uint256 _valuation) public {\n        require(\n            isVerifier[msg.sender] == true,\n            \"Only Verified Accounts can be used to Verify Asset\"\n        );\n\n        _verified.increment();\n\n        idToMarketItem[_tokenId].valuation = _valuation;\n        idToMarketItem[_tokenId].valuationDate = block.timestamp;\n        idToMarketItem[_tokenId].verified = true;\n        idToMarketItem[_tokenId].verifier = msg.sender;\n\n        emit TokenVerified(_tokenId, msg.sender);\n    }\n\n    function createMarketItem(uint256 tokenId, uint256 price) private {\n        require(price > 0, \"Price must be at least 1 wei\");\n        require(\n            msg.value == listingPrice,\n            \"Price must be equal to listing price\"\n        );\n\n        idToMarketItem[tokenId] = MarketItem(\n            tokenId,\n            payable(msg.sender),\n            payable(msg.sender),\n            address(0),\n            price,\n            0,\n            0,\n            false,\n            false\n        );\n\n        // _transfer(msg.sender, address(this), tokenId);\n        _itemsSold.increment();\n        emit MarketItemCreated(\n            tokenId,\n            msg.sender,\n            address(this),\n            price,\n            false\n        );\n    }\n\n    /* allows someone to resell a token they have purchased */\n    function resellToken(uint256 tokenId, uint256 price) public payable {\n        require(\n            idToMarketItem[tokenId].owner == msg.sender,\n            \"Only item owner can perform this operation\"\n        );\n        require(\n            idToMarketItem[tokenId].verified == true,\n            \"Only Verified Properties can be Sold\"\n        );\n        require(\n            msg.value == listingPrice,\n            \"Price must be equal to listing price\"\n        );\n        idToMarketItem[tokenId].sold = false;\n        idToMarketItem[tokenId].price = price;\n        idToMarketItem[tokenId].seller = payable(msg.sender);\n        idToMarketItem[tokenId].owner = payable(address(this));\n        _itemsSold.decrement();\n\n        _transfer(msg.sender, address(this), tokenId);\n    }\n\n    /* Creates the sale of a marketplace item */\n    /* Transfers ownership of the item, as well as funds between parties */\n    function createMarketSale(uint256 tokenId) public payable {\n        uint256 price = idToMarketItem[tokenId].price;\n        address seller = idToMarketItem[tokenId].seller;\n        require(\n            msg.value == price,\n            \"Please submit the asking price in order to complete the purchase\"\n        );\n        require(\n            idToMarketItem[tokenId].verified == true,\n            \"Only Verified Properties can be Sold\"\n        );\n        idToMarketItem[tokenId].owner = payable(msg.sender);\n        idToMarketItem[tokenId].sold = true;\n        idToMarketItem[tokenId].seller = payable(address(0));\n        _itemsSold.increment();\n        _transfer(address(this), msg.sender, tokenId);\n        payable(owner).transfer(listingPrice);\n        payable(seller).transfer(msg.value);\n    }\n\n    /* Returns all unsold market items */\n    function fetchMarketItems() public view returns (MarketItem[] memory) {\n        uint256 itemCount = _tokenIds.current();\n        uint256 verified = _verified.current();\n        uint256 currentIndex = 0;\n\n        MarketItem[] memory items = new MarketItem[](verified);\n        for (uint256 i = 0; i < itemCount; i++) {\n            if (\n                idToMarketItem[i + 1].owner == address(this) &&\n                idToMarketItem[i + 1].verified == true\n            ) {\n                uint256 currentId = i + 1;\n                MarketItem storage currentItem = idToMarketItem[currentId];\n                items[currentIndex] = currentItem;\n                currentIndex += 1;\n            }\n        }\n        return items;\n    }\n\n    /* Returns only items that a user has purchased */\n    function fetchMyNFTs() public view returns (MarketItem[] memory) {\n        uint256 totalItemCount = _tokenIds.current();\n        uint256 itemCount = 0;\n        uint256 currentIndex = 0;\n\n        for (uint256 i = 0; i < totalItemCount; i++) {\n            if (idToMarketItem[i + 1].owner == msg.sender) {\n                itemCount += 1;\n            }\n        }\n\n        MarketItem[] memory items = new MarketItem[](itemCount);\n        for (uint256 i = 0; i < totalItemCount; i++) {\n            if (idToMarketItem[i + 1].owner == msg.sender) {\n                uint256 currentId = i + 1;\n                MarketItem storage currentItem = idToMarketItem[currentId];\n                items[currentIndex] = currentItem;\n                currentIndex += 1;\n            }\n        }\n        return items;\n    }\n\n    /* Returns only items a user has listed */\n    function fetchItemsListed() public view returns (MarketItem[] memory) {\n        uint256 totalItemCount = _tokenIds.current();\n        uint256 itemCount = 0;\n        uint256 currentIndex = 0;\n\n        for (uint256 i = 0; i < totalItemCount; i++) {\n            if (idToMarketItem[i + 1].seller == msg.sender) {\n                itemCount += 1;\n            }\n        }\n\n        MarketItem[] memory items = new MarketItem[](itemCount);\n        for (uint256 i = 0; i < totalItemCount; i++) {\n            if (idToMarketItem[i + 1].seller == msg.sender) {\n                uint256 currentId = i + 1;\n                MarketItem storage currentItem = idToMarketItem[currentId];\n                items[currentIndex] = currentItem;\n                currentIndex += 1;\n            }\n        }\n        return items;\n    }\n\n    function fetchUnverifiedTokens() public view returns(MarketItem[] memory){\n        uint256 itemCount = _tokenIds.current();\n        uint256 verified = _verified.current();\n        uint256 currentIndex = 0;\n\n        MarketItem[] memory items = new MarketItem[](itemCount - verified);\n        for (uint256 i = 0; i < itemCount; i++) {\n            if (\n                idToMarketItem[i + 1].verified == false\n            ) {\n                uint256 currentId = i + 1;\n                MarketItem storage currentItem = idToMarketItem[currentId];\n                items[currentIndex] = currentItem;\n                currentIndex += 1;\n            }\n        }\n        return items;\n    }\n}\n",
  "sourcePath": "/home/samarth/Blockchain/BE Project/Group/cryptoacres/contracts/NFT.sol",
  "compiler": {
    "name": "solc",
    "version": "0.8.9+commit.e5eed63a.Emscripten.clang"
  },
  "schemaVersion": "3.4.3",
  "updatedAt": "2022-04-17T17:06:43.259Z",
  "networkType": "ethereum",
  "devdoc": {
    "kind": "dev",
    "methods": {
      "approve(address,uint256)": {
        "details": "See {IERC721-approve}."
      },
      "balanceOf(address)": {
        "details": "See {IERC721-balanceOf}."
      },
      "getApproved(uint256)": {
        "details": "See {IERC721-getApproved}."
      },
      "isApprovedForAll(address,address)": {
        "details": "See {IERC721-isApprovedForAll}."
      },
      "name()": {
        "details": "See {IERC721Metadata-name}."
      },
      "ownerOf(uint256)": {
        "details": "See {IERC721-ownerOf}."
      },
      "safeTransferFrom(address,address,uint256)": {
        "details": "See {IERC721-safeTransferFrom}."
      },
      "safeTransferFrom(address,address,uint256,bytes)": {
        "details": "See {IERC721-safeTransferFrom}."
      },
      "setApprovalForAll(address,bool)": {
        "details": "See {IERC721-setApprovalForAll}."
      },
      "supportsInterface(bytes4)": {
        "details": "See {IERC165-supportsInterface}."
      },
      "symbol()": {
        "details": "See {IERC721Metadata-symbol}."
      },
      "tokenURI(uint256)": {
        "details": "See {IERC721Metadata-tokenURI}."
      },
      "transferFrom(address,address,uint256)": {
        "details": "See {IERC721-transferFrom}."
      }
    },
    "version": 1
  },
  "userdoc": {
    "kind": "user",
    "methods": {},
    "version": 1
  }
}